:100000000C9454050C947C050C947C050C947C0594
:100010000C947C050C947C050C947C050C947C055C
:100020000C947C050C947C050C947C050C947C054C
:100030000C947C050C947C050C947C050C947C053C
:100040000C9455150C947C050C9423150C94FD14FC
:100050000C947C050C947C050C947C050C947C051C
:100060000C949F150C947C0500000000003E5B4F33
:100070005B3E3E6B4F6B3E1C3E7C3E1C183C7E3C08
:10008000181C577D571C1C5E7F5E1C00183C180016
:10009000FFE7C3E7FF0018241800FFE7DBE7FF30A6
:1000A000483A060E2629792926407F050507407F14
:1000B00005253F5A3CE73C5A7F3E1C1C08081C1C87
:1000C0003E7F14227F22145F5F005F5F06097F017D
:1000D0007F006689956A606060606094A2FFA29468
:1000E00008047E040810207E201008082A1C080836
:1000F0001C2A08081E101010100C1E0C1E0C303884
:100100003E3830060E3E0E06000000000000005F84
:1001100000000007000700147F147F14242A7F2AA0
:100120001223130864623649562050000807030062
:10013000001C2241000041221C002A1C7F1C2A08AE
:10014000083E080800807030000808080808000011
:1001500060600020100804023E5149453E00427F85
:10016000400072494949462141494D331814127FD4
:100170001027454545393C4A494931412111090774
:100180003649494936464949291E000014000000F5
:1001900040340000000814224114141414140041C7
:1001A00022140802015909063E415D594E7C121184
:1001B000127C7F494949363E414141227F414141BC
:1001C0003E7F494949417F090909013E4141517337
:1001D0007F0808087F00417F41002040413F017FA8
:1001E000081422417F404040407F021C027F7F0470
:1001F00008107F3E4141413E7F090909063E4151B9
:10020000215E7F09192946264949493203017F01A8
:10021000033F4040403F1F2040201F3F4038403FA9
:10022000631408146303047804036159494D4300BF
:100230007F4141410204081020004141417F0402F6
:10024000010204404040404000030708002054548D
:1002500078407F284444383844444428384444286B
:100260007F385454541800087E090218A4A49C78BE
:100270007F0804047800447D40002040403D007F1A
:100280001028440000417F40007C047804787C08FA
:100290000404783844444438FC18242418182424CE
:1002A00018FC7C08040408485454542404043F44B3
:1002B000243C4040207C1C2040201C3C4030403CE2
:1002C00044281028444C9090907C4464544C440042
:1002D00008364100000077000000413608000201A6
:1002E0000204023C2623263C1EA1A161123A404092
:1002F000207A38545455592155557941225454780F
:1003000042215554784020545579400C1E527212A7
:100310003955555559395454545939555454580030
:1003200000457C410002457D420001457C407D1234
:1003300011127DF0282528F07C5455450020545496
:100340007C547C0A097F4932494949323A44444441
:100350003A324A4848303A4141217A3A424020787C
:10036000009DA0A07D3D4242423D3D4040403D3C7D
:1003700024FF2424487E4943662B2FFC2F2BFF09A2
:1003800029F620C0887E0903205454794100004496
:100390007D413048484A32384040227A007A0A0A81
:1003A000727D0D19317D2629292F282629292926F4
:1003B00030484D4020380808080808080808382F39
:1003C00010C8ACBA2F102834FA00007B00000814C3
:1003D0002A142222142A14085500550055AA55AA99
:1003E00055AAFF55FF55FF000000FF00101010FF39
:1003F00000141414FF001010FF00FF1010F010F094
:10040000141414FC001414F700FF0000FF00FF1484
:1004100014F404FC141417101F10101F101F1414D0
:10042000141F00101010F0000000001F101010101A
:100430001F10101010F010000000FF10101010100E
:1004400010101010FF10000000FF140000FF00FF4C
:1004500000001F10170000FC04F4141417101714E8
:1004600014F404F40000FF00F7141414141414140A
:10047000F700F7141414171410101F101F1414147D
:10048000F4141010F010F000001F101F0000001FE7
:1004900014000000FC140000F010F01010FF10FF1A
:1004A000141414FF141010101F00000000F010FFAF
:1004B000FFFFFFFFF0F0F0F0F0FFFFFF0000000093
:1004C00000FFFF0F0F0F0F0F3844443844FC4A4A17
:1004D0004A347E02020606027E027E0263554941CC
:1004E000633844443C04407E201E2006027E020203
:1004F00099A5E7A5991C2A492A1C4C7201724C3017
:100500004A4D4D303048784830BC625A463D3E49ED
:100510004949007E0101017E2A2A2A2A2A44445F91
:10052000444440514A444040444A51400000FF0185
:1005300003E080FF000008086B6B08361236243693
:10054000060F090F060000181800000010100030F8
:1005500040FF0101001F01011E00191D1712003C80
:100560003C3C3C0000000000000103070F1F3F7FE0
:100570000080C0E0F0F8FCFE00000000240027002E
:100580002A00DB40A4A62EAF2000A1C8D300408DD6
:10059000AED580A800000000250028002B00000038
:1005A000600000000000000000000000000000E00B
:1005B0000000000000000000000000000001E0005A
:1005C00000000000000000000000000001F000003A
:1005D000000000000000000000000003F000000028
:1005E0000000000000000000000007F00000000014
:1005F00000000000000000000007F80000000000FC
:1006000000000000000000000FF800000003C00020
:100610007E000001E0007F0FF800000003C000FE34
:10062000000001E000FFEFF800000003C000FE0042
:100630000001E000FFFFF800000003C000F0000030
:10064000000F007FFE7FC0000003C000F00000002C
:100650000F003FFE7FF83FF1FBCFFCFEF3BC3DEF08
:10066000E01FFE7FFF7FFBFFDFFEFEFFBC3DEFE0F4
:100670001FC6FFFF7FFBFFDFFEFEFFBC3DEFE00F6D
:10068000E3C7FE787BC3DE1EF0FFBC3DEF0007FF33
:1006900087FC787BC3DE1EF0F83C3DEF0001FFFFD6
:1006A000F0007BC3C01EF0F03C3DEF0001F37FE0A3
:1006B0003FFBC3CFFEF0F03C3DEF0003E33F807F04
:1006C000FBC3DFFEF0F03C3DEF0007E73C00787B2A
:1006D000C3DE1EF0F03C3DEF0007FFBE00787BC399
:1006E000DE1EF0F03C3DEF0007FFFE00787BC3DE2E
:1006F0001EF0F03C3DEF000FFFFE007FFBFFDFFE32
:10070000F0F03FFDEFE00FFFFF007FFBFFDFFEF0AB
:10071000F03FFDEFE00FF9FF003E79F9CF9EF0F0DA
:100720001F3DE7E01FF1FF00000000000000000097
:100730000000001F80FF007FFFFFFFFFFFFFFFFFA4
:10074000FFE01C007F007FFFFFFFFEB46D888D1867
:10075000E000001F007FFFFFFFFE95AD7DB577E055
:1007600000000F007FFFFFFFFEA5AD9D8D19E0008B
:100770000006007FFFFFFFFEB5ADEDB57EE0000097
:100780000000000180000000000000000000038065
:1007900000000000000000000007C0000000000092
:1007A0000000000007C00000000000000000000F73
:1007B000C00000000000000000001FE0000000007A
:1007C00000000000001FE00000000000000000002A
:1007D0003FE00000000000000000003FF0000000CB
:1007E0000000000000007FF0000000000000001F7B
:1007F000F87FF0000000000000003FFE7FF00000E6
:1008000000000000003FFF7FF0000000000000003B
:100810001FFFFBE0000000000000000FFFF9FFC019
:100820000000000000000FFFF9FFF80000000000CA
:100830000007FFF1FFFF00000000000003FC73FF52
:10084000FF80000000000001FE3FFFFF800000006D
:10085000000000FF1E0FFF000000000000007FFEF0
:100860001FFC000000000000003FFFFFF800000038
:10087000000000000FDFFFE0000000000000001F8C
:1008800019FFC0000000000000003F3CFF00000016
:1008900000000000007E7CF8000000000000000066
:1008A0007FFE7C0000000000000000FFFFFC000055
:1008B000000000000000FFFFFE000000000000003C
:1008C00000FFFFFE0000000000000001FFEFFE003F
:1008D00000000000000001FFCFFE0000000000004B
:1008E0000003FF07FE0000000000000003FC07FEFD
:1008F0000000000000000003F003FE000000000004
:100900000000018000FE0000000000000000000068
:100910007E000000000000000000003E000000001B
:100920000000000000000C00000000000007800034
:10093000FC000003C0000000078001FC000003C0B1
:10094000000000078001FC000003C00000000780D9
:1009500001E00000001E000000078001E000000030
:100960001E007FE3F79FF9FDE7787BDFC0FFF7FF0D
:10097000BFFDFDFF787BDFC0FFF7FFBFFDFDFF7808
:100980007BDFC0F0F787BC3DE1FF787BDE00F0F74E
:1009900087BC3DE1F0787BDE0000F787803DE1E039
:1009A000787BDE007FF7879FFDE1E0787BDE00FF4C
:1009B000F787BFFDE1E0787BDE00F0F787BC3DE123
:1009C000E0787BDE00F0F787BC3DE1E0787BDE007D
:1009D000F0F787BC3DE1E0787BDE00FFF7FFBFFD6D
:1009E000E1E07FFBDFC0FFF7FFBFFDE1E07FFBDF62
:1009F000C07CF3F39F3DE1E03E7BCFC000000000F0
:100A000000000000000000FFFFFFFFFFFFFFFFFFEF
:100A1000FFC0FFFFFFFFFD68DB111A31C0FFFFFFC2
:100A2000FFFD2B5AFB6AEFC0FFFFFFFFFD4B5B3B57
:100A30001A33C0FFFFFFFFFD6B5BDB6AFDC02200C6
:100A4000FF21005353443133303620616C6C6F63A7
:100A50006174696F6E206661696C656400000000F6
:100A600000230026002900040404040404040402F2
:100A7000020202020203030303030301020408103B
:100A80002040800102040810200102040810200008
:100A9000000008000201000003040700000000003D
:100AA00000000000BE16861D11241FBECFEFD8E047
:100AB000DEBFCDBF13E0A0E0B1E0EEE6F2E402C09D
:100AC00005900D92A63AB107D9F725E0A6EAB3E062
:100AD00001C01D92A237B207E1F715E0C3E5D5E0EA
:100AE00004C02197FE010E94F31FC235D107C9F748
:100AF0000E9441170C942A210C940000089581E46F
:100B000080937C0080917A00806480937A00809149
:100B10007A0086FDFCCF809178009091790008954D
:100B200008950895AF92BF92CF92DF92EF92FF9215
:100B30000F931F93CF93DF936C017B018B01040F05
:100B4000151FEB015E01AE18BF08C017D10759F0A1
:100B50006991D601ED91FC910190F081E02DC601E3
:100B60000995892B79F7C501DF91CF911F910F91DD
:100B7000FF90EF90DF90CF90BF90AF900895FC0171
:100B8000538D448D252F30E0842F90E0821B930BF2
:100B9000541710F0CF96089501970895FC01918D98
:100BA000828D981761F0A28DAE0FBF2FB11D5D969B
:100BB0008C91928D9F5F9F73928F90E008958FEF3D
:100BC0009FEF0895FC01918D828D981731F0828DF1
:100BD000E80FF11D858D90E008958FEF9FEF089548
:100BE000FC01918D228D892F90E0805C9F4F821BAC
:100BF00091098F739927089585E894E00E94F00584
:100C000021E0892B09F420E0822F089580E090E014
:100C1000892B29F00E94FC0581110C940000089595
:100C2000FC01A48DA80FB92FB11DA35ABF4F2C9161
:100C3000848D90E001968F739927848FA689B78958
:100C40002C93A089B1898C91837080648C93938D4F
:100C5000848D981306C00288F389E02D80818F7DF2
:100C600080830895EF92FF920F931F93CF93DF93AA
:100C7000EC0181E0888F9B8D8C8D98131AC0E889D8
:100C8000F989808185FF15C09FB7F894EE89FF89A7
:100C90006083E889F98980818370806480839FBF45
:100CA00081E090E0DF91CF911F910F91FF90EF9045
:100CB0000895F62E0B8D10E00F5F1F4F0F73112755
:100CC000E02E8C8D8E110CC00FB607FCFACFE88990
:100CD000F989808185FFF5CFCE010E941006F1CF02
:100CE000EB8DEC0FFD2FF11DE35AFF4FF0829FB704
:100CF000F8940B8FEA89FB8980818062CFCFCF93F4
:100D0000DF93EC01888D8823B9F0AA89BB89E88933
:100D1000F9898C9185FD03C0808186FD0DC00FB6D9
:100D200007FCF7CF8C9185FFF2CF808185FFEDCF57
:100D3000CE010E941006E9CFDF91CF910895833054
:100D400081F028F4813099F08230A9F0089587303D
:100D5000A9F08830C9F08430B1F4809180008F7D93
:100D600003C0809180008F7780938000089584B5C0
:100D70008F7784BD089584B58F7DFBCF8091B000BF
:100D80008F778093B00008958091B0008F7DF9CF68
:100D90001F93CF93DF93282F30E0F901E157F54FF0
:100DA0008491F901E558F54FD491F901E959F54FCE
:100DB000C491CC23A9F0162F81110E949F06EC2F1D
:100DC000F0E0EE0FFF1FEC56FA4FA591B4918FB7EC
:100DD000F894EC91111108C0D095DE23DC938FBFFD
:100DE000DF91CF911F910895DE2BF8CFCF93DF9342
:100DF00090E0FC01E558F54F24918959954FFC018D
:100E000084918823C9F090E0880F991FFC01E8586D
:100E1000FA4FA591B491FC01EC56FA4FC591D491CB
:100E200061110DC09FB7F8948C91209582238C930B
:100E30008881282328839FBFDF91CF910895623056
:100E400051F49FB7F8943C91822F809583238C9323
:100E5000E8812E2BEFCF8FB7F894EC912E2B2C93AB
:100E60008FBFEACF3FB7F89480915B0490915C0408
:100E7000A0915D04B0915E0426B5A89B05C02F3FEC
:100E800019F00196A11DB11D3FBFBA2FA92F982FB0
:100E90008827BC01CD01620F711D811D911D42E0AB
:100EA000660F771F881F991F4A95D1F708958F9273
:100EB0009F92AF92BF92CF92DF92EF92FF924B013F
:100EC0005C010E9432076B017C010E9432076C19A1
:100ED0007D098E099F09683E734081059105A8F33D
:100EE00021E0821A9108A108B10888EEC80E83E0BB
:100EF000D81EE11CF11C81149104A104B10429F74E
:100F0000FF90EF90DF90CF90BF90AF909F908F9029
:100F100008952FB7F8946091570470915804809108
:100F2000590490915A042FBF0895EF92FF920F93A6
:100F30001F93CF93DF93EC01EC80FD806E157F054E
:100F40000CF070C057FF04C0240F351F50E040E084
:100F50008E819F81FA01E20FF31F8E179F071CF409
:100F60009C01241B350B121613060CF05BC0922F4C
:100F7000842F8695869586958E9DD0018F9DB00D88
:100F800011246A0F7B1FAF8DB8A1A60FB71F477042
:100F900049F188E0841B482F682F70E0FB01E0597D
:100FA000FA4FE491281708F063C0621B71092FEF14
:100FB00030E002C0359527956A95E2F7E2230130CB
:100FC000110539F0B0F10230110561F58C91E82777
:100FD00002C08C91E82BEC93941720F12C813D8179
:100FE000A20FB31FE92FE41BE83078F0023011059F
:100FF00021F58E2F9C9190959C932C813D81A20F81
:10100000B31F88508830B0F7E770EE2359F0F0E056
:10101000E859FA4FE49101301105F9F010F102306E
:10102000110519F1DF91CF911F910F91FF90EF9072
:101030000895E0958C91E823CECF81E0011511054C
:1010400009F480E081959E2F8C932C813D81A20F25
:10105000B31F98509830C0F7D7CF8C91E82BEC9302
:10106000E1CFE0958C91E823FACF8C91E827F7CF78
:101070000130110509F4ADCFE0F20230110509F499
:10108000A5CFAE0DBF1DAECF0F931F93CF93DF93B0
:1010900077FF04C0260F371F70E060E0DC01149674
:1010A000CD91DC91FB01E20FF31FCE17DF071CF49B
:1010B0009E01261B370B121613064CF5FA0157FD3D
:1010C0003796A3E0F595E795AA95E1F7EC9FD00157
:1010D000ED9FB00DFC9FB00D11246A0F7B1FDC014A
:1010E0005F96ED91FC91E60FF71F4770552781E061
:1010F00090E001C0880F4A95EAF7482F01301105AA
:1011000059F0A8F02E0F3F1F02301105E1F0DF91DA
:10111000CF911F910F9108952E0F3F1FE217F307F4
:10112000B1F38191DF011197842B8C93F7CF8095D8
:101130002E0F3F1FE217F30751F39191DF01119733
:1011400098239C93F7CFE217F30709F38191DF010E
:10115000119784278C93F7CF0F931F93FA01DC012B
:1011600056964C9156974230E9F04330A1F1413008
:1011700061F514964D915C91DA01AE1BBF0BFD0138
:10118000E21BF30B77FD0BC0DC0116964D915C91D1
:101190006417750724F4AB01BF010E9444081F9136
:1011A0000F91089514964D915C91DA01A61BB70B2F
:1011B000BD0161507109DC0116964D915C91DA0117
:1011C000AE1BBF0BFD01E21BF30B77FDE8CFAF01B8
:1011D0000E949507E4CF16964D915C91DA01A61B0B
:1011E000B70BBD0161507109CDCF0F931F93FA0169
:1011F000DC0156964C9156974230A9F0433091F15C
:10120000413019F514964D915C91DA01AE1BBF0B7C
:10121000FD013197F7FD04C0AB01BF010E949507A6
:101220001F910F91089514964D915C91DA01A61BC0
:10123000B70BBD01DC0116964D915C91DA01AE1B36
:10124000BF0BFD013197621B730BF7FDE9CFDC018A
:1012500016964D915C91E417F50714F7AF010E94C3
:101260004408DECF16964D915C91DA01A61BB70BB0
:10127000BD01621B730BCECFFC0177FD64C080857E
:101280009185681779070CF05EC057FD5CC08285B8
:101290009385481759070CF056C086898230B1F003
:1012A000833029F1813041F484819581841B950B31
:1012B000AB01BC01615071092130310509F108F41D
:1012C00043C02230310509F463C0089584819581BB
:1012D000DC01A61BB70BBD016150710986819781A6
:1012E000DC01A41BB50BAD0141505109E5CF86814E
:1012F0009781861B970BBA01AC0141505109DCCF95
:10130000CA0157FD0796A3E095958795AA95E1F741
:10131000A481B5818A9F90018B9F300D9A9F300DDB
:101320001124620F731F078CF0A1E02DE60FF71F49
:101330004770552721E030E001C0220F4A95EAF7B7
:101340008081822B80830895CA0157FD079633E080
:10135000959587953A95E1F7A481B5818A9F90018B
:101360008B9F300D9A9F300D1124620F731F078CD5
:10137000F0A1E02DE60FF71F4770552781E090E0C0
:1013800001C0880F4A95EAF7809590818923DACFCA
:10139000CA0157FD079623E0959587952A95E1F7B1
:1013A000A481B5818A9F90018B9F300D9A9F300D4B
:1013B0001124620F731F078CF0A1E02DE60FF71FB9
:1013C0004770552721E030E001C0220F4A95EAF727
:1013D00080818227B7CF08958EBD00000DB407FE2F
:1013E000FDCF8EB508958CBD9DBD08950895FC0177
:1013F0006370668B8481958126813781613039F0F5
:10140000633029F091878087338722870895318759
:1014100020879387828708952F923F924F925F9201
:101420006F927F928F929F92AF92BF92CF92DF92F4
:10143000EF92FF920F931F93CF93DF93CDB7DEB759
:101440006A970FB6F894DEBF0FBECDBF9A8F898F13
:101450007A8369834A01D22E18870F833701BC2C07
:10146000DC0159962D913C915A972115310509F0CF
:1014700015C118968D919C911997681779070CF0F2
:10148000D7C11A968D919C91481759070CF0D0C17D
:101490004C2C512CB6E0CB9E600D711D11247C8725
:1014A0006B87161617060CF0C3C1EA2DF0E0FA8719
:1014B000E98793E0EE0FFF1F9A95E1F7F88BEF872E
:1014C000CF01840F951F181619060CF0B1C1A98D14
:1014D000BA8D58968C91811104C0BFEABD1508F4ED
:1014E000D394A98DBA8DED91FC9111970284F38567
:1014F000E02DCD010995B5E0DB9EC0011124E98105
:10150000FA81FC83EB83312C212C9C0128593F4F1D
:10151000388F2F8B4A2D50E05E8B4D8BEF89F88DE5
:10152000E20DF31D44919E828D82D12CC12C6981E4
:101530007A81620D731D7A8B698B842F90E09C8B6E
:101540008B8BE98DFA8DA081B18140FF82C0F1E0E3
:10155000BF126FC0AF126DC01C96ED91FC912F8130
:101560003885A4014C0D5D1D69897A89898D9A8D14
:101570000995EB89FC89F595E7954E2F5FEFC51A24
:10158000D50A6D817E818D899E89680F791F7E8342
:101590006D8398E0C916D10481F6AFEF2A1A3A0A92
:1015A000EB81FC81E40DF51DFC83EB83F5E02F1648
:1015B000310409F0B3CF2F81388526153705B9F0EE
:1015C000A98DBA8DED91FC91B1E0BB1257C0AB1261
:1015D00055C069817A816B5F7F4F0088F189E02D6A
:1015E000830128E030E0A401898D9A8D0995A98DA9
:1015F000BA8DED91FC9111970688F789E02DCD0108
:101600006A960FB6F894DEBF0FBECDBFDF91CF91C3
:101610001F910F91FF90EF90DF90CF90BF90AF9010
:101620009F908F907F906F905F904F903F902F9002
:1016300009941E96ED91FC91EF80F88409851A8536
:1016400092014D815E816B817C81898D9A8D099596
:1016500090CF2F8138852615370509F48ACF31E0E0
:10166000B31207C0A31205C01C96ED91FC91930123
:1016700078CF1E96ED91FC917301E0CF6B857C8550
:10168000641975090684F785E02D73010F851889A3
:101690009201A401898D9A8D0995A9CFF9013496FB
:1016A0009491329745915491D91AB7E0DB9E400D41
:1016B000511D1124F901259134913C8B2B8BFA019A
:1016C00025903490FA013296749031963491398B8A
:1016D000329664903196449041E04C1518F04A15CA
:1016E00008F07FC0662D062C000C770B7C836B8383
:1016F000842D042C000C990B9E838D83A98DBA8DAB
:10170000ED91FC9111970284F385E02DCD010995AF
:10171000512CD12CC12CEA2DF0E0FA87E9872B2D32
:1017200030E03C872B87A401440D511D47FC5A959E
:10173000588F4F8B69817A81660D711D67FC7A9590
:101740007E876D877989C71608F051CF2C2D30E040
:101750004D815E81420F531FA985BA854A9FC00102
:101760004B9F900D5A9F900D1124FC01E80DF91D1F
:10177000F88BEF87852D612C4F89588D420F531FB1
:101780005E8B4D8B671408F050C044244394480E80
:10179000877041F4C1010196EB89FC89E20DF31DCC
:1017A000D4901C01D7FE19C0A98DBA8DED91FC9182
:1017B000662D70E0B1E0BB1219C0AB1217C02D85C9
:1017C0003E85620F731F0484F585E02D2F813885D7
:1017D0004D895E89898D9A8D0995DD0C6394842DE0
:1017E000D1CF1E821D821C821B8288CF4B815C81DF
:1017F000640F751FAB85BC856A9FC0016B9F900D00
:101800007A9F900D112469817A81680F791F06846F
:10181000F785E02DEF80F88409851A859D014F85B5
:101820005889898D9A8D0995D8CF570CC3948ACF42
:101830006A960FB6F894DEBF0FBECDBFDF91CF9191
:101840001F910F91FF90EF90DF90CF90BF90AF90DE
:101850009F908F907F906F905F904F903F902F90D0
:1018600008958F929F92AF92CF92EF92FF920F9333
:101870001F93CF93DF93EC01262F898D9A8D0097CC
:1018800009F051C06A30D1F41D861C868D8948E06C
:10189000849F900111248E859F85820F931F9F87BF
:1018A0008E8781E090E0DF91CF911F910F91FF90A3
:1018B000EF90CF90AF909F908F9008956D3089F307
:1018C000CC88AD888F898823C1F08C859D8536E0D2
:1018D000C39E800D911D11244885598548175907CD
:1018E00064F44E855F851D861C8638E0A39EC0018A
:1018F0001124840F951F9F878E87EA88FB880889AB
:1019000019894E855F856C857D85CE010E940C0A04
:101910002C898C859D8546E0249F800D911D112486
:101920009D878C87BECF6A3069F41D861C86FC01BA
:101930003896E4912D898E859F85E29F800D911DBB
:101940001124ADCF6D3009F4ACCFFC013496349145
:10195000631708F4A6CF3296E491E61708F4A1CFF6
:10196000FC01329685909490462F431B342F47E01C
:10197000349F800C911C1124F401329634913196DD
:10198000E4913323A9F1EE2399F1CC88F401359643
:10199000E491AD884F89442301F10E2E000CFF0B1A
:1019A000E30FF11DCE9EA001CF9E500D11246C853A
:1019B0007D85460F571F68857985641775076CF418
:1019C0004E855F851D861C86FC013896E491AE9E8F
:1019D000400D511D11245F874E87EA88FB880889D6
:1019E00019894E855F856C857D85CE010E940C0A24
:1019F000F4013496E4912C898C859D85E29F800DBD
:101A0000911D11248DCF6F927F928F929F92AF92F2
:101A1000BF92CF92DF92EF92FF920F931F93CF93DB
:101A2000DF93EC016B015A0139014801E881F9812A
:101A30000284F385E02D0995E881F9810288F38914
:101A4000E02D87019301A501B601CE010995A501FD
:101A5000480D591D41505109E881F9810288F389E7
:101A6000E02D9301B601CE010995E881F981008846
:101A7000F189E02D9401A501B601CE010995C60CAE
:101A8000D71CB60161507109E881F9810088F1899C
:101A9000E02D9401A501CE010995E881F981068820
:101AA000F789E02DCE01DF91CF911F910F91FF902B
:101AB000EF90DF90CF90BF90AF909F908F907F90EE
:101AC0006F9009946F927F928F929F92AF92BF9284
:101AD000CF92DF92EF92FF920F931F93CF93DF93FA
:101AE0005C01EB016A01490138018701DC01ED91DC
:101AF000FC916217730719F5641675062CF0962D84
:101B0000872D3A01C92ED82E9601261937092F5F45
:101B10003F4F048CF58DE02DA301BE01C501099551
:101B2000DF91CF911F910F91FF90EF90DF90CF90B9
:101B3000BF90AF909F908F907F906F9008954615C3
:101B4000570591F42617370724F0892D4B01C22F32
:101B5000D82F9E01281939092F5F3F4F068CF78D2A
:101B6000E02DA601B401DACF0284F385E02D0995BA
:101B7000D501ED91FC910488F589E02D8301940154
:101B8000A601BE01C5010995D501ED91FC9106881C
:101B9000F789E02DC501DF91CF911F910F91FF9043
:101BA000EF90DF90CF90BF90AF909F908F907F90FD
:101BB0006F900994EF92FF920F931F93DC011A9696
:101BC0000D911C911B9718962D913C911997ED91B1
:101BD000FC9100A0F1A1E02D7B0150E040E070E01D
:101BE00060E009951F910F91FF90EF9008954F923B
:101BF0005F926F927F928F929F92AF92BF92CF929D
:101C0000DF92EF92FF920F931F93CF93DF936C01BC
:101C10002B015A0139014801DC01ED91FC9102844C
:101C2000F385E02D0995E201640C751CD601ED9158
:101C3000FC91C615D7055CF40088F189E02D870179
:101C40009401A501BE01C60109952196EFCF068832
:101C5000F789E02DC601DF91CF911F910F91FF9081
:101C6000EF90DF90CF90BF90AF909F908F907F903C
:101C70006F905F904F9009948F929F92AF92BF9216
:101C8000CF92DF92EF92FF920F931F93CF93DF9348
:101C9000EC015B014A016901E881F9810284F38565
:101CA000E02D099595012C0D3D1D21503109E8814C
:101CB000F9810488F589E02D78018401A401B5013A
:101CC000CE010995E881F9810688F789E02DCE01DA
:101CD000DF91CF911F910F91FF90EF90DF90CF9008
:101CE000BF90AF909F908F9009948F929F92AF92E8
:101CF000BF92CF92DF92EF92FF920F931F93CF93F9
:101D0000DF93EC015B014A0169017801E881F98107
:101D10000284F385E02D0995C80CD91C8601015079
:101D20001109E881F9810488F589E02D9501A40164
:101D3000B501CE010995E881F9810688F789E02D82
:101D4000CE01DF91CF911F910F91FF90EF90DF9027
:101D5000CF90BF90AF909F908F900994EF92FF9299
:101D60000F931F93DC01ED91FC9100A0F1A1E02DF8
:101D700009951F910F91FF90EF9008950F931F9376
:101D8000DC01ED91FC91068CF78DE02D09951F91FA
:101D90000F9108950F931F93DC01ED91FC91048C3A
:101DA000F58DE02D09951F910F910895DC01ED91BE
:101DB000FC910084F185E02D09943F924F925F924F
:101DC0006F927F928F929F92AF92BF92CF92DF924B
:101DD000EF92FF920F931F93CF93DF935C017B01F0
:101DE0004A016901390187E0680E711C93E075941E
:101DF00067949A95E1F72B01400E511E10E000E028
:101E0000312CD0E0C0E0CE0187709927330C892BAC
:101E100059F4FE0183E0F595E7958A95E1F7E00F27
:101E2000F11FE80DF91D349037FE0AC021E030E0C3
:101E3000A701B5016C0F7D1F8EE295E00E94D60EC2
:101E40002196CC16DD06F9F68FEFE81AF80A060D92
:101E5000171DE414F504A9F6DF91CF911F910F919E
:101E6000FF90EF90DF90CF90BF90AF909F908F90BA
:101E70007F906F905F904F903F9008952F923F9288
:101E80004F925F926F927F928F929F92AF92BF928A
:101E9000CF92DF92EF92FF920F931F93CF93DF9336
:101EA00000D000D000D0CDB7DEB73C016A013E8340
:101EB0002D83FC82EB825801A41AB50AB7FE03C039
:101EC000B194A194B1088D809E80861A970A97FEDE
:101ED00003C09194819491088A149B045CF0902F24
:101EE000812F0D811E819D838E839C2D8D2D6B01F5
:101EF000692F782F0C151D055CF09D818E817E83E6
:101F00006D83692F782F902F812F8601C92ED82EAF
:101F10001601201A310A2B012D813E81421A530AE3
:101F200057FE03C0519441945108710137FE03C01C
:101F30003FEFE31AF30AF594E7948D819E818617AB
:101F400097075CF5A1E0B0E0BA83A983C016D1067B
:101F50004CF1D301ED91FC910484F585E02D2B81AA
:101F60003C81A8016D817E818A149B041CF04D8107
:101F70005E81B801C3010995E418F508F7FE0AC0AF
:101F80002D813E8189819A81280F391F3E832D83BF
:101F9000E20CF31C0F5F1F4FD9CF2FEF3FEF3A83B7
:101FA0002983D4CF26960FB6F894DEBF0FBECDBFDF
:101FB000DF91CF911F910F91FF90EF90DF90CF9025
:101FC000BF90AF909F908F907F906F905F904F9059
:101FD0003F902F900895089520910C04260F3327E9
:101FE000331F21323105ECF420913004FC0190E0E4
:101FF00080E0243069F082E00895A0910C042191E2
:10200000AC0144515C4FA40FB52FB11D2C93019628
:10201000861798F380910C04680F60930C0480E09D
:10202000089581E008951092300481E08093320495
:102030001092310461E082E10E94C80661E083E110
:102040000E94C806E9EBF0E080818E7F808380816A
:102050008D7F808388E48093B80085E48093BC0002
:102060000895CF93DF9391E09093EB038823B9F029
:10207000C091B800D091BA008091BC008A7B809357
:10208000BC0060E082E10E94C80660E083E10E943B
:10209000C8060E941310D093BA00C093B800DF9115
:1020A000CF910895E091650480916404E81730F4BD
:1020B000F0E0EA53FC4F808190E008958FEF9FEFAE
:1020C000089590916504809164042FEF3FEF981775
:1020D00048F4E92FF0E0EA53FC4F208130E09F5FA5
:1020E00090936504C90108958091640490916504FA
:1020F000891B990B0895CF92DF92EF92FF920F9375
:102100001F93CF93DF937C01CB018A01209184043C
:10211000222389F0EB016B01C40ED51ECC15DD0521
:1021200069F06991D701ED91FC910190F081E02D6A
:10213000C7010995F3CF642F0E94EC0FC801DF910E
:10214000CF911F910F91FF90EF90DF90CF90089566
:10215000CF93DF931F92CDB7DEB7698320918404BC
:102160002223F9F020918104203258F021E030E060
:10217000FC013383228390E080E00F90DF91CF91C8
:10218000089580918204E82FF0E0EA55FC4F998190
:1021900090838F5F809382048093810481E090E03C
:1021A000ECCF61E0CE0101960E94EC0FF7CFCF9209
:1021B000DF92EF92FF920F931F93CF93DF93D09113
:1021C000810481E0D13208F09CC0C09183040E9458
:1021D00032076B017C018091300481116CC082E078
:1021E0008093300481E0809332048FEF80932F043A
:1021F00010925404D0935304A6EAB3E0E3E3F4E06E
:1022000080E0D8138DC01092550480915504CC0FF6
:10221000C82BC093550480913104813009F084C0EB
:10222000109231040E9432076B017C0180915504A9
:102230008093BB008091E7039091E803A091E903AC
:10224000B091EA03892B8A2B8B2BA1F00E943207D5
:102250000091E7031091E8032091E9033091EA032C
:102260006C197D098E099F0906171707280739077A
:1022700008F442C08091BC0083FDD8CF85EC8093E8
:10228000BC000E9432076B017C01809130048230D7
:1022900009F44CC080912F048F3F09F469C08091EC
:1022A0002F04803209F466C080912F04803309F432
:1022B00063C084E026C08091E7039091E803A09179
:1022C000E903B091EA03892B8A2B8B2B09F483CF86
:1022D0000E9432070091E7031091E8032091E9037F
:1022E0003091EA036C197D098E099F0906171707BB
:1022F0002807390708F06FCF8091E6030E9431105C
:1023000085E0109282041092810410928404DF917F
:10231000CF911F910F91FF90EF90DF90CF90089594
:102320009D9191938F5F6DCF85EEA9CF8091E7034B
:102330009091E803A091E903B091EA03892B8A2BDD
:102340008B2B09F4A2CF0E9432070091E703109172
:10235000E8032091E9033091EA036C197D098E09A5
:102360009F09061717072807390708F08ECFC4CF33
:1023700080E0C7CF82E0C5CF83E0C3CFEF92FF926A
:102380000F931F93CF93DF937C01C62F80914B0552
:1023900090914C05009709F459C020914F0531E008
:1023A0003093840420938304109282041092810459
:1023B000DC01ED91FC910190F081E02D60E0099548
:1023C0008701EE24E394F12CD1E0C15080914B05BC
:1023D00090914C05CF3F91F1B0E2EB16F104D8F0AB
:1023E0000E94D71080914B0590914C0520914F058C
:1023F000D093840420938304109282041092810469
:10240000DC01ED91FC910190F081E02D60E00995F7
:10241000EE24E394F12C80914B0590914C05F8014A
:102420006491DC01ED91FC910190F081E02D099522
:10243000BFEFEB1AFB0A0F5F1F4FC7CFDF91CF91A2
:102440001F910F91FF90EF900C94D710E0915B05D6
:10245000F0915C059081809161058095892380834E
:102460008701C15008F438C0F801849120914905D2
:1024700030914A05232B29F00E94EC090F5F1F4F72
:10248000F0CF28E030E040E8E0915705F0915805A2
:1024900090915F05582F5423D9F05081952B90834C
:1024A000E0915905F0915A05908150916005952B66
:1024B0009083E0915905F0915A0550819091600503
:1024C000909595239083469521503109E9F6D6CF12
:1024D000508190959523E3CFDF91CF911F910F917C
:1024E000FF90EF9008951F93CF93DF93EC018D8DB4
:1024F0009E8D009721F1162F29A131E0309384049D
:10250000209383041092820410928104DC01ED91E7
:10251000FC910190F081E02D60E009958D8D9E8DFC
:10252000DC01ED91FC910190F081E02D612F099586
:102530008D8D9E8DDF91CF911F910C94D710ADA5FD
:10254000BEA59C918BA9809589238C938B8D9C8DA6
:10255000892B31F0862FDF91CF911F910C94EC09DC
:1025600028E030E080E8A9A5BAA599A9462F48231C
:10257000C1F04C91942B9C93ABA5BCA59C914AA90E
:10258000942B9C93ABA5BCA54C919AA990959423B0
:102590009C9386952150310931F7DF91CF911F919E
:1025A00008954C9190959423E6CF1F93CF93DF939A
:1025B000EC01162F8D8D9E8D892BB1F12DA93EA991
:1025C0004FA958AD60E074E284EF90E00E94D11F03
:1025D000205131094109510956954795379527955D
:1025E0002093B80066EA111167EACE010E947312C7
:1025F0008D8D9E8D892B41F129AD3AAD4BAD5CADF2
:1026000060E074E284EF90E00E94D11F2051310914
:102610004109510956954795379527952093B8005C
:10262000DF91CF911F9108958B8D9C8D892B21F087
:102630008EAD9FAD0E94F309EFA5F8A990818CA9FA
:10264000809589238083CECFEFA5F8A980819CA9AE
:10265000892B8083E5CF90E080E00895CF92DF92D0
:10266000EF92FF92CF93DF93EC010E9489076B01F9
:102670007C010E9489076C197D098E099F09613DC3
:1026800077408105910580F40E947F058E35914049
:1026900034F0CE3581E0D80764F780E006C0CE354F
:1026A00021E0D20734F3F9CF81E0DF91CF91FF90A1
:1026B000EF90DF90CF900895FC0101900020E9F7A2
:1026C0003197AF01481B590BBC0185E894E00C948D
:1026D00092058F929F92AF92BF920F931F93CF93C9
:1026E000DF93CDB7DEB7A1970FB6F894DEBF0FBE6C
:1026F000CDBF19A2423008F44AE08E010F5D1F4F92
:10270000842E912CB12CA12CA50194010E94D11FE3
:10271000E62FB901CA01EA30F4F4E05DD801EE9386
:102720008D01232B242B252B79F790E080E0109747
:1027300019F0CD010E945C13A1960FB6F894DEBF8C
:102740000FBECDBFDF91CF911F910F91BF90AF9082
:102750009F908F900895E95CE1CFCF93DF930E9423
:102760005C13EC0187E591E00E945C138C0F9D1FC8
:10277000DF91CF91089561E082E00E94C8060E9437
:10278000890760936A0470936B0480936C04909340
:102790006D0480917F0490918004029721F48AE572
:1027A00091E00C94AD1387E791E00E94AD1381E0B6
:1027B00090E09093800480937F0408958F929F927D
:1027C000AF92BF92CF92DF92EF92FF9260E082E0F1
:1027D0000E94C8060E948907C0906A04D0906B04CA
:1027E000E0906C04F0906D049B01AC012C193D0944
:1027F0004E095F0969017A0187E891E00E945C1344
:10280000C701B6010E94A81E20E030E04AE754E468
:102810000E94071E6B017C01AC019B010E94CC1F32
:102820008823A9F083EA91E00E945C138FEA91E08B
:102830000E94AD131092800410927F04FF90EF90DD
:10284000DF90CF90BF90AF909F908F9008952FEF23
:102850003FEF4FE75FE7C701B6010E94CC1F811130
:102860000DC02FEF3FEF4FE75FE7C701B6010E94B2
:10287000021E18161CF487EA91E0D6CF2FEF3FEF27
:102880004FE75FE4C701B6010E945A1F18161CF4F7
:102890008BEA91E0C9CF2FEF3FEF4FE75FECC70125
:1028A000B6010E94021E87FDF3CF2AE037ED43EA0E
:1028B0005BE3C701B6010E94961D4B015C010E94BB
:1028C000791E6B017C010E94A81E9B01AC01C50111
:1028D000B4010E94951D4B015C014AE0C701B6019D
:1028E0000E9469136EE285E894E00E94320620E0BF
:1028F00030E040E251E4C501B4010E945F1F4B018A
:102900005C010E94791E6B01F12CE12C4AE0C701A9
:10291000B6010E946913C701B6010E94A81E9B015F
:10292000AC01C501B4010E94951D20E030E040E2F9
:1029300051E40E945F1F0E94791E90E080E04AE00F
:102940000E94691373CF2091340530913505C90178
:10295000079697FD079623E0959587952A95E1F7C9
:102960002091320530913305829FA001839F500D45
:10297000929F500D112470E060E080914D05909180
:102980004E050C9423210E941E2185ED8093BC00EE
:102990008091E7039091E803A091E903B091EA03E5
:1029A0000796A11DB11D23E0B695A795979587952C
:1029B0002A95D1F72091BC0024FD03C01092300469
:1029C00008954091E7035091E8036091E903709105
:1029D000EA03452B462B472B69F30097A105B10568
:1029E00041F025E32A95F1F700000197A109B1090B
:1029F000E1CF8091E6030C9431101F920F920FB635
:102A00000F9211242F933F934F935F936F937F9374
:102A10008F939F93AF93BF93EF93FF9385E894E0D9
:102A20000E941006FF91EF91BF91AF919F918F91FE
:102A30007F916F915F914F913F912F910F900FBEBA
:102A40000F901F9018951F920F920FB60F9211249E
:102A50002F938F939F93EF93FF93E0919504F091C1
:102A600096048081E0919B04F0919C0482FD1BC040
:102A7000908180919E048F5F8F7320919F048217B5
:102A800041F0E0919E04F0E0EB57FB4F958F80936F
:102A90009E04FF91EF919F918F912F910F900FBE08
:102AA0000F901F9018958081F4CF1F920F920FB650
:102AB0000F9211242F933F938F939F93AF93BF93C4
:102AC0008091570490915804A0915904B0915A04F0
:102AD0003091560423E0230F2D3758F50196A11DA0
:102AE000B11D209356048093570490935804A093EB
:102AF0005904B0935A0480915B0490915C04A091B6
:102B00005D04B0915E040196A11DB11D80935B042C
:102B100090935C04A0935D04B0935E04BF91AF9169
:102B20009F918F913F912F910F900FBE0F901F900B
:102B3000189526E8230F0296A11DB11DD2CF1F9232
:102B40000F920FB60F9211242F933F934F935F93E1
:102B50006F937F938F939F93AF93BF93EF93FF9365
:102B60008091B900887F803609F44AC0F0F5883238
:102B700009F4A7C018F5803109F49BC0B8F4882384
:102B800009F4F9C0883009F494C0FF91EF91BF9126
:102B9000AF919F918F917F916F915F914F913F91F5
:102BA0002F910F900FBE0F901F901895883109F448
:102BB00088C0803251F780932F0414C0803409F408
:102BC0009DC040F48033B9F38833F9F680932F0425
:102BD00085ECB0C0803509F485C0883509F496C00D
:102BE000883499F60E94C514D0CF883909F48CC076
:102BF00038F5883729F050F4883611F0803729F6F7
:102C000083E08093300410922E0457C0883809F472
:102C10007BC0803919F0803809F0B7CF80912E043D
:102C2000803208F071C0E0912E0481E08E0F809315
:102C30002E048091BB00F0E0E25FFB4F80833DC03B
:102C4000803B39F0E0F4803A09F479C0883A09F021
:102C50009CCF84E08093300410920D0410920C04F9
:102C6000E0916204F0916304099580910C04811154
:102C70000FC081E080930C041092EC0309C0803CEB
:102C800009F4A6CF883C09F4A3CF883B09F07DCF97
:102C9000E0910D0481E08E0F80930D04F0E0E4518B
:102CA000FC4F80818093BB0090910D0480910C04B7
:102CB00029C0809155048093BB0085EC8093BC00B3
:102CC00064CF9091540480915304981758F5E09183
:102CD000540481E08E0F80935404F0E0ED5CFB4FD0
:102CE0008081E9CFE091540481E08E0F80935404F9
:102CF0008091BB00F0E0ED5CFB4F80839091540429
:102D0000809153049817C8F285E8D8CFE091540415
:102D100081E08E0F809354048091BB00F0E0ED5C65
:102D2000FB4F80838091320481115CCF81E08093DE
:102D3000310484EA8093BC001092300426CF85ECE5
:102D40008093BC001092300480912E04803230F4C5
:102D5000E0912E04F0E0E25FFB4F108260912E04C0
:102D600070E0E0916004F09161048EE094E00995D8
:102D700010922E040ACF10922F0434CFE5E8F4E02D
:102D80001382128248EE53E060E070E04483558382
:102D9000668377838BE091E09183808385EC90E07C
:102DA0009587848784EC90E09787868780EC90E015
:102DB000918B808B81EC90E0938B828B82EC90E006
:102DC000958B848B86EC90E0978B868B118E128E80
:102DD000138E148EA2E2B5E013961C921E921297E7
:102DE00014964D935D936D937C9317978DE191E0CD
:102DF00011969C938E93EEE2F5E01382128220E806
:102E000030E03583248380E490E0978386833187A4
:102E1000208793878287168A1586148617861686DA
:102E200081E0858B848B2FEF3FEF338B228B318BAF
:102E3000208B878B108E128E118E8FE291E0918302
:102E40008083148E138EB68FA58F10A2178E8FEFEE
:102E500084A385A386A387A380A780E89AE1A6E040
:102E6000B0E085AB96ABA7ABB0AF80EA96E8A1E047
:102E7000B0E081AF92AFA3AFB4AF80E586AF17AE3D
:102E80000895CF93DF9300D000D01F92CDB7DEB767
:102E9000789484B5826084BD84B5816084BD85B535
:102EA000826085BD85B5816085BD80916E00816041
:102EB00080936E00109281008091810082608093E7
:102EC00081008091810081608093810080918000E9
:102ED0008160809380008091B10084608093B10014
:102EE0008091B00081608093B00080917A0084600E
:102EF00080937A0080917A00826080937A0080913A
:102F00007A00816080937A0080917A008068809353
:102F10007A001092C100E0919504F091960482E04D
:102F20008083E0919104F09192041082E0919304E7
:102F3000F09194048FEC808310929D04E0919904A9
:102F4000F0919A0486E08083E0919704F0919804D0
:102F5000808180618083E0919704F0919804808162
:102F600088608083E0919704F09198048081806864
:102F70008083E0919704F091980480818F7D808315
:102F800064E670E080E090E00E94570780914D0574
:102F900090914E05892B11F10E94A31420913405C4
:102FA00030913505809132059091330521323105FC
:102FB0000CF050C0B9016052710977FF02C06F5F19
:102FC0007F4F759567958357910997FD019600E2AC
:102FD00010E023E730E04EE955E04FC02091340582
:102FE00030913505C901079697FD0796B3E0959591
:102FF0008795BA95E1F720913205309133054C0160
:10300000829EC001839E900D929E900D11240E947D
:10301000F91F90934E0580934D05892B09F0BCCF85
:1030200003E41AE01A830983E981FA816491662333
:1030300061F085E894E00E94320609811A810F5FF1
:103040001F4F1A830983892B79F787E591E00E9446
:103050005C13FFCFB9016054710977FF02C06F5F45
:103060007F4F759567958255910997FD019600E40C
:1030700010E022E530E04EE757E0959587950E94F5
:10308000DD0E82E08093500580914B0590914C05B8
:10309000892B09F498C08DE380934F051092650445
:1030A0001092640410928204109281040E94131002
:1030B00080E995E0909363048093620481E995E050
:1030C00090936104809360048091560587FD1EC033
:1030D00061E00E94F60661E0809156050E94C806F4
:1030E00061E070E080E090E00E94570760E080912E
:1030F00056050E94C8066AE070E080E090E00E94F9
:10310000570761E0809156050E94C80680914B05E3
:1031100090914C05892B09F417C1209163053091DA
:103120006405409165055091660560E074E284EFA6
:1031300090E00E94D11F2051310941095109569553
:103140004795379527952093B80064E080E995E08E
:103150000E94BE116091340561508EE295E00E949C
:10316000731264E08CE895E00E94BE1180915005D6
:1031700060E1813009F064E18EE295E00E94731213
:1031800064E088E895E00E94BE118FE880936B05AB
:1031900080913205909133058038910509F0EDC09A
:1031A00080913405909135058034910509F0EAC18C
:1031B00080915005813009F0DEC08FE980936B0566
:1031C00002E10983EEC061E0809154050E94F60699
:1031D00061E0809155050E94F60680915405082E05
:1031E000000C990BFC01E959F54FE491F0E0EE0F6A
:1031F000FF1FEC56FA4F2591349130935C052093D4
:103200005B05FC01E558F54FE491E0936105809181
:103210005505082E000C990BFC01E959F54FE49176
:10322000F0E0EE0FFF1FEC56FA4FA591B491B0936A
:103230005E05A0935D05FC01E558F54FE491E09330
:1032400062058C91E82BEC938091490590914A0599
:10325000892B09F436C09FB69982F89480915F0457
:10326000811127C0E1E7FAE08491E5E8FAE0949162
:10327000E82FF0E0EE0FFF1FE858FA4FA591B49148
:10328000EC91E92321F461E08AE00E94C80661E044
:103290008AE00E94F6068CB580618CBD8CB5806496
:1032A0008CBD61E08DE00E94F60661E08BE00E943B
:1032B000F60680915F048F5F80935F04A980AFBEA4
:1032C00003CF61E0809152050E94F60661E0809193
:1032D00053050E94F60680915205082E000C990BAA
:1032E000FC01E959F54FE491F0E0EE0FFF1FEC56B9
:1032F000FA4F259134913093580520935705FC01DE
:10330000E558F54FE491E0935F0580915305082E51
:10331000000C990BFC01E959F54FE491F0E0EE0F38
:10332000FF1FEC56FA4FA591B491B0935A05A093A4
:103330005905FC01E558F54FE491E09360058C9147
:10334000E095E823EC93C0CE8091490590914A0521
:10335000892B31F080916C0590916D050E94F309E5
:10336000E0915D05F0915E05908180916205809508
:1033700089238083EACE8FEC21CF8036910579F4C2
:103380008091340590913505409709F0FBC08091FC
:103390005005813009F0F4C080E180936B0512E0A4
:1033A00019836AED8EE295E00E94731269818EE2C4
:1033B00095E00E94731261E88EE295E00E9473121C
:1033C00060916B058EE295E00E94731269ED8EE2CA
:1033D00095E00E9473128091500562E2813009F0FD
:1033E00061EF8EE295E00E94731266E082E895E05C
:1033F0000E94BE1180914B0590914C05892B09F4D8
:10340000C3C02091670530916805409169055091CE
:103410006A0560E074E284EF90E00E94D11F2051C1
:1034200031094109510956954795379527952093BC
:10343000B80080914B0590914C05892B09F4AEC0E2
:1034400020916305309164054091650550916605B2
:1034500060E074E284EF90E00E94D11F20513109B6
:103460004109510956954795379527952093B800FE
:1034700065E08EE39AE00E94BE11609132056150D2
:103480008EE295E00E94731220913405309135054B
:10349000C901079697FD0796F3E095958795FA95EC
:1034A000E1F72091320530913305829F8001839F9F
:1034B000100D929F100D112480904D0590904E0597
:1034C0009A82898280914B0590914C05080D191DB7
:1034D000009709F455C120914F0531E030938404E1
:1034E000209383041092820410928104DC01ED91F8
:1034F000FC910190F081E02D60E40995EE24E394C5
:10350000F12CDD24D39480914B0590914C0589805A
:103510009A800815190509F458C020E2E216F10452
:10352000D8F00E94D71080914B0590914C052091C6
:103530004F05D09284042093830410928204109249
:103540008104DC01ED91FC910190F081E02D60E4BB
:103550000995EE24E394F12C80914B0590914C0554
:10356000E981FA816191FA83E983DC01ED91FC91B3
:103570000190F081E02D0995BFEFEB1AFB0AC3CF54
:103580008FEA0BCF02E01DCEE0915D05F0915E0564
:10359000808190916205892B80834BCF8091490572
:1035A00090914A05892B31F080916C0590916D05C1
:1035B0000E94F309E0915D05F0915E059081809194
:1035C000620580958923808353CF0E94D710809114
:1035D0004B0590914C05892B09F419C12091670581
:1035E000309168054091690550916A0560E074E288
:1035F00084EF90E00E94D11F205131094109510907
:1036000056954795379527952093B80060ED77E05C
:1036100080E090E00E9457070E94A31460E08FE0D2
:103620000E94F60661E082E00E94F60662E083E016
:103630000E94F60660E082E00E94C80634E0432E55
:10364000512C43E0642E712C52E0C52ED12C20E089
:10365000222E20E0322E80917F04909180048230CF
:103660009105D1F120917E042111E0C0009709F06D
:10367000DDC00E94890700916604109167042091C3
:103680006804309169044B015C01801A910AA20A16
:10369000B30A950184010031174221053105E0F09C
:1036A0006093660470936704809368049093690440
:1036B0000E947F058C010E942E13882309F4B1C05B
:1036C00082EB91E00E3511400CF0ADC082ED91E03F
:1036D0000E94AD130E94BB13E2E9FAE08491EEE789
:1036E000FAE01491EAE6FAE00491F12CE12C0023CF
:1036F00099F081110E949F06E02FF0E0EE0FFF1F6E
:10370000E35AF54FA591B4918C91182391E080E094
:1037100009F490E0E92EF82E00917A0410917B04D0
:103720000230110509F41EC10CF0E7C001151105A6
:1037300009F4D5C10130110509F4F5C080917C046C
:1037400090917D048230910509F4CDC183309105BB
:1037500009F4CCC1019721F486E493E00E94AD13F3
:1037600010927D0410927C042114310409F473CF6B
:103770000E94FC05882309F46ACF0E94000067CFED
:10378000E0915B05F0915C05808190916105892B4A
:10379000808389809A808016910609F418CFD4011D
:1037A0008D91BA83A9832091490530914A05232B35
:1037B00019F00E94EC09EDCF28E030E040E8E091FC
:1037C0005705F091580590915F05582F5423D9F073
:1037D0005081952B9083E0915905F0915A05908185
:1037E00050916005952B9083E0915905F0915A0511
:1037F0005081909160059095952390834695215036
:103800003109E9F6C6CF508190959523E3CFE09139
:103810005D05F0915E05808190916205892B808322
:10382000F5CE87EF91E00E94AD1356CF019709F0D6
:1038300053CF0E9489074B015C01809100018111E7
:1038400031C060916E0470916F048091700490910A
:1038500071040E94A81E2DEC3CEC4CE85FE30E9432
:103860005F1F0E94791EE0906A04F0906B04009143
:103870006C0410916D04A50194012E193F09400BB1
:10388000510B261737074807590760F088E292E086
:103890000E94AD130E94DE1331E030937E048DE56B
:1038A00092E0C1CF0E947F058E3541E094071CF461
:1038B00088E892E0B8CF0E942E13882309F40CCF39
:1038C0008BEC92E00E94AD130E94DE131092000177
:1038D00080916A0490916B04A0916C04B0916D0486
:1038E000881A990AAA0ABB0A80926E0490926F0401
:1038F000A0927004B0927104EFCE0330110509F468
:10390000BCC00430110509F019CFEF2809F49DC09F
:1039100010927B0410927A0410927D0410927C0421
:103920000E94DE130BCF0E9489070091760410914C
:1039300077042091780430917904601B710B820B1D
:10394000930B633371058105910508F4F7CEEF28D9
:10395000C9F5D0927B04C0927A048EEE92E00E9468
:10396000AD13ECCE8090760490907704A09078040C
:10397000B0907904EF2809F45CC00E948907DC014B
:10398000CB0188199909AA09BB098E3521E0920754
:10399000A105B10578F50E94890780907204909086
:1039A0007304A0907404B0907504681979098A09A9
:1039B0009B09613971408105910548F410937D049C
:1039C00000937C0410927B0410927A04B7CE0E947C
:1039D00089076093720470937304809374049093C6
:1039E000750410927D0410927C0470927B046092A6
:1039F0007A04A4CE8C019D01085E1340210931098F
:103A0000083E13402105310528F470927D04609230
:103A10007C04D8CF803D9740A105B10508F48ECE37
:103A200050927D0440927C0450927B0440927A0430
:103A300085CE0E948907681979098A099B09603D2A
:103A400077408105910560F779CE10937D0400934E
:103A50007C0480917F0490918004029759F08CE05F
:103A600093E00E94AD130E94BB13D0928004C092D9
:103A70007F0464CE85E393E072CF0E9489070091B2
:103A80007204109173042091740430917504601BCA
:103A9000710B820B930B6139714081059105F8F030
:103AA000E1E0F0E0F0937D04E0937C0410927B046D
:103AB00010927A04EF2809F04FCE88248394912C39
:103AC00090927B0480927A040E9489076093760426
:103AD0007093770480937804909379042FCEEF2825
:103AE00009F02CCEEACF8AE593E038CE85E793E063
:103AF0000E94AD1380917E04882309F431CE88E8BA
:103B000093E00E94AD1310927E042ACE8FE291E0E2
:103B100090932F0580932E0580914D0590914E0531
:103B2000009711F00C94952008955058BB27AA27B0
:103B30000E94AD1D0C94201F0E94121F38F00E949D
:103B4000191F20F039F49F3F19F426F40C940F1F2D
:103B50000EF4E095E7FB0C94091FE92F0E94311F3A
:103B600058F3BA17620773078407950720F079F4B2
:103B7000A6F50C94531F0EF4E0950B2EBA2FA02D32
:103B80000B01B90190010C01CA01A0011124FF270A
:103B9000591B99F0593F50F4503E68F11A16F04005
:103BA000A22F232F342F4427585FF3CF4695379504
:103BB0002795A795F0405395C9F77EF41F16BA0BC9
:103BC000620B730B840BBAF09150A1F0FF0FBB1F77
:103BD000661F771F881FC2F70EC0BA0F621F731FC0
:103BE000841F48F4879577956795B795F7959E3F1D
:103BF00008F0B0CF9395880F08F09927EE0F9795AE
:103C0000879508950E94E51E08F481E008950E94BA
:103C10001B1E0C94201F0E94191F58F00E94121F97
:103C200040F029F45F3F29F00C94091F51110C94C6
:103C3000541F0C940F1F0E94311F68F39923B1F396
:103C4000552391F3951B550BBB27AA2762177307C2
:103C5000840738F09F5F5F4F220F331F441FAA1F56
:103C6000A9F335D00E2E3AF0E0E832D09150504012
:103C7000E695001CCAF72BD0FE2F29D0660F771FC0
:103C8000881FBB1F261737074807AB07B0E809F0A6
:103C9000BB0B802DBF01FF2793585F4F3AF09E3F2B
:103CA000510578F00C94091F0C94541F5F3FE4F306
:103CB000983ED4F3869577956795B795F7959F5F6E
:103CC000C9F7880F911D9695879597F90895E1E0BA
:103CD000660F771F881FBB1F621773078407BA0719
:103CE00020F0621B730B840BBA0BEE1F88F7E09574
:103CF00008950E94391F88F09F5798F0B92F99278F
:103D0000B751B0F0E1F0660F771F881F991F1AF0C6
:103D1000BA95C9F714C0B13091F00E94531FB1E0B9
:103D200008950C94531F672F782F8827B85F39F0B8
:103D3000B93FCCF3869577956795B395D9F73EF45F
:103D400090958095709561957F4F8F4F9F4F089507
:103D5000E89409C097FB3EF4909580957095619525
:103D60007F4F8F4F9F4F9923A9F0F92F96E9BB27DB
:103D70009395F695879577956795B795F111F8CF57
:103D8000FAF4BB0F11F460FF1BC06F5F7F4F8F4FC2
:103D90009F4F16C0882311F096E911C0772321F0B8
:103DA0009EE8872F762F05C0662371F096E8862F50
:103DB00070E060E02AF09A95660F771F881FDAF7A7
:103DC000880F9695879597F90895990F0008550FD4
:103DD000AA0BE0E8FEEF16161706E807F907C0F091
:103DE00012161306E407F50798F0621B730B840B99
:103DF000950B39F40A2661F0232B242B252B21F473
:103E000008950A2609F4A140A6958FEF811D811D12
:103E1000089597F99F6780E870E060E008959FEF4C
:103E200080EC089500240A94161617061806090651
:103E3000089500240A941216130614060506089520
:103E4000092E0394000C11F4882352F0BB0F40F4A8
:103E5000BF2B11F460FF04C06F5F7F4F8F4F9F4FE8
:103E6000089557FD9058440F551F59F05F3F71F06A
:103E70004795880F97FB991F61F09F3F79F08795D1
:103E80000895121613061406551FF2CF4695F1DF5A
:103E900008C0161617061806991FF1CF86957105EA
:103EA000610508940895E894BB2766277727CB011E
:103EB00097F908950E94E51E08F48FEF08950E9477
:103EC000721F0C94201F0E94121F38F00E94191FAD
:103ED00020F0952311F00C94091F0C940F1F11244E
:103EE0000C94541F0E94311F70F3959FC1F3950FDE
:103EF00050E0551F629FF001729FBB27F00DB11D6E
:103F0000639FAA27F00DB11DAA1F649F6627B00DFD
:103F1000A11D661F829F2227B00DA11D621F739FE6
:103F2000B00DA11D621F839FA00D611D221F749FF4
:103F30003327A00D611D231F849F600D211D822F3B
:103F4000762F6A2F11249F5750409AF0F1F0882362
:103F50004AF0EE0FFF1FBB1F661F771F881F91508F
:103F60005040A9F79E3F510580F00C94091F0C9416
:103F7000541F5F3FE4F3983ED4F386957795679599
:103F8000B795F795E7959F5FC1F7FE2B880F911DB9
:103F90009695879597F908950E94E51E880B990BD1
:103FA0000895A1E21A2EAA1BBB1BFD010DC0AA1F7A
:103FB000BB1FEE1FFF1FA217B307E407F50720F092
:103FC000A21BB30BE40BF50B661F771F881F991F0D
:103FD0001A9469F760957095809590959B01AC0156
:103FE000BD01CF010895EE0FFF1F0590F491E02D64
:103FF00009940F931F93CF93DF938230910510F4B0
:1040000082E090E0E0917005F091710530E020E0F1
:10401000B0E0A0E0309799F42115310509F44AC0C9
:10402000281B390B24303105D8F58A819B81611515
:10403000710589F1FB0193838283FE0111C04081E8
:1040400051810281138148175907E0F04817590739
:1040500099F4109761F012960C93129713961C9393
:104060003296CF01DF91CF911F910F910895009368
:10407000700510937105F4CF2115310551F04217E9
:10408000530738F0A901DB019A01BD01DF01F801F6
:10409000C1CFEF01F9CF9093710580937005CDCF1B
:1040A000FE01E20FF31F819391932250310939836E
:1040B0002883D7CF20916E0530916F05232B41F4D3
:1040C000209103013091040130936F0520936E0518
:1040D00020910101309102012115310541F42DB7E4
:1040E0003EB74091050150910601241B350BE0912C
:1040F0006E05F0916F05E217F307A0F42E1B3F0B3E
:104100002817390778F0AC014E5F5F4F2417350749
:1041100048F04E0F5F1F50936F0540936E058193DB
:1041200091939FCFF0E0E0E09CCFCF93DF93009797
:10413000E9F0FC01329713821282A0917005B091D0
:104140007105ED0130E020E01097A1F4208131816C
:10415000820F931F20916E0530916F052817390744
:1041600009F061C0F0936F05E0936E05DF91CF9188
:104170000895EA01CE17DF07E8F54A815B819E01C9
:1041800041155105B1F7E901FB83EA834991599142
:10419000C40FD51FEC17FD0761F480819181029651
:1041A000840F951FE90199838883828193819B8382
:1041B0008A83F0E0E0E012968D919C91139700972E
:1041C000B9F52D913C911197CD010296820F931F65
:1041D00020916E0530916F052817390739F6309711
:1041E00051F51092710510927005B0936F05A09370
:1041F0006E05BCCFD383C28340815181840F951F4C
:10420000C817D90761F44E5F5F4F88819981480FC5
:10421000591F518340838A819B8193838283211517
:10422000310509F0B0CFF0937105E09370059ECF92
:10423000FD01DC01C0CF13821282D7CF81E090E074
:10424000F8940C942A21DC0101C06D934150504038
:10425000E0F7089515E0C3E5D5E004C0FE010E9433
:0E426000F31F2196C435D107C9F7F894FFCF9C
:10426E00010000720580000000000032069205BFBA
:10427E00057F06F005CE05E20500000000A8107BC4
:10428E00102B137E057410611052100000000031C7
:10429E000C92052B13EB0F3C097E05D60EAE0ECA03
:1042AE000EBE0E3E0F7E05F709D512AC08F508F7C7
:1042BE000DDA0D620D030D0D0A0050756D70207034
:1042CE0072696D696E67206D6F64652061637469D4
:1042DE0076617465642E0050756D7020616374692B
:1042EE0076617465642E0050756D7020646561632F
:1042FE00746976617465642E2052756E74696D658D
:10430E003A20006E616E00696E66006F7666002060
:10431E0073005761746572206C6576656C206973E5
:10432E0020737461626C6520616E642068696768D1
:10433E002E005761746572206C6576656C2069730A
:10434E00206C6F772C2061637469766174696E6777
:10435E002070756D702E00556E737461626C6520E1
:10436E0072656164696E67732064657465637465F4
:10437E00642C2069676E6F72696E6720746869734A
:10438E00206379636C652E0050756D702072756EAA
:10439E006E696E6720746F6F206C6F6E672C206471
:1043AE006561637469766174696E672070756D708E
:1043BE0020666F72207361666574792E00414C41E0
:1043CE00524D207261697365642E2057616974695C
:1043DE006E6720666F722061636B6E6F776C6564BB
:1043EE0067656D656E742E005761746572206E6F11
:1043FE007420646574656374656420696E6974699C
:10440E00616C6C792E20436F6E74696E75696E6780
:10441E0020746F206D6F6E69746F722070756D7081
:10442E00206475726174696F6E2E005761746572C7
:10443E002064657465637465642C206465616374BF
:10444E0069766174696E672070756D702E004275A5
:10445E0074746F6E20707265737365642C20737440
:10446E006172742074696D696E672E005072657387
:10447E007320616E6420486F6C6420616374696F91
:10448E006E3A205072696D696E672074686520708F
:10449E00756D702E0050756D702069732072756E7B
:1044AE006E696E672E0053686F727420707265733A
:1044BE007320616374696F6E2E00446F75626C6554
:1044CE002073686F727420707265737320616374E9
:1044DE00696F6E2E004C6F6E67207072657373205D
:1044EE00616374696F6E2E00416C61726D20616341
:1044FE006B6E6F776C656467656420616E642072A5
:06450E00657365742E00C8
:00000001FF
