:100000000C944F050C9477050C9477050C947705A8
:100010000C9477050C9477050C9477050C94770570
:100020000C9477050C9477050C9477050C94770560
:100030000C9477050C9477050C9477050C94770550
:100040000C9476130C9477050C9444130C941E13A3
:100050000C9477050C9477050C9477050C94770530
:100060000C94C0130C94770500000000003E5B4F19
:100070005B3E3E6B4F6B3E1C3E7C3E1C183C7E3C08
:10008000181C577D571C1C5E7F5E1C00183C180016
:10009000FFE7C3E7FF0018241800FFE7DBE7FF30A6
:1000A000483A060E2629792926407F050507407F14
:1000B00005253F5A3CE73C5A7F3E1C1C08081C1C87
:1000C0003E7F14227F22145F5F005F5F06097F017D
:1000D0007F006689956A606060606094A2FFA29468
:1000E00008047E040810207E201008082A1C080836
:1000F0001C2A08081E101010100C1E0C1E0C303884
:100100003E3830060E3E0E06000000000000005F84
:1001100000000007000700147F147F14242A7F2AA0
:100120001223130864623649562050000807030062
:10013000001C2241000041221C002A1C7F1C2A08AE
:10014000083E080800807030000808080808000011
:1001500060600020100804023E5149453E00427F85
:10016000400072494949462141494D331814127FD4
:100170001027454545393C4A494931412111090774
:100180003649494936464949291E000014000000F5
:1001900040340000000814224114141414140041C7
:1001A00022140802015909063E415D594E7C121184
:1001B000127C7F494949363E414141227F414141BC
:1001C0003E7F494949417F090909013E4141517337
:1001D0007F0808087F00417F41002040413F017FA8
:1001E000081422417F404040407F021C027F7F0470
:1001F00008107F3E4141413E7F090909063E4151B9
:10020000215E7F09192946264949493203017F01A8
:10021000033F4040403F1F2040201F3F4038403FA9
:10022000631408146303047804036159494D4300BF
:100230007F4141410204081020004141417F0402F6
:10024000010204404040404000030708002054548D
:1002500078407F284444383844444428384444286B
:100260007F385454541800087E090218A4A49C78BE
:100270007F0804047800447D40002040403D007F1A
:100280001028440000417F40007C047804787C08FA
:100290000404783844444438FC18242418182424CE
:1002A00018FC7C08040408485454542404043F44B3
:1002B000243C4040207C1C2040201C3C4030403CE2
:1002C00044281028444C9090907C4464544C440042
:1002D00008364100000077000000413608000201A6
:1002E0000204023C2623263C1EA1A161123A404092
:1002F000207A38545455592155557941225454780F
:1003000042215554784020545579400C1E527212A7
:100310003955555559395454545939555454580030
:1003200000457C410002457D420001457C407D1234
:1003300011127DF0282528F07C5455450020545496
:100340007C547C0A097F4932494949323A44444441
:100350003A324A4848303A4141217A3A424020787C
:10036000009DA0A07D3D4242423D3D4040403D3C7D
:1003700024FF2424487E4943662B2FFC2F2BFF09A2
:1003800029F620C0887E0903205454794100004496
:100390007D413048484A32384040227A007A0A0A81
:1003A000727D0D19317D2629292F282629292926F4
:1003B00030484D4020380808080808080808382F39
:1003C00010C8ACBA2F102834FA00007B00000814C3
:1003D0002A142222142A14085500550055AA55AA99
:1003E00055AAFF55FF55FF000000FF00101010FF39
:1003F00000141414FF001010FF00FF1010F010F094
:10040000141414FC001414F700FF0000FF00FF1484
:1004100014F404FC141417101F10101F101F1414D0
:10042000141F00101010F0000000001F101010101A
:100430001F10101010F010000000FF10101010100E
:1004400010101010FF10000000FF140000FF00FF4C
:1004500000001F10170000FC04F4141417101714E8
:1004600014F404F40000FF00F7141414141414140A
:10047000F700F7141414171410101F101F1414147D
:10048000F4141010F010F000001F101F0000001FE7
:1004900014000000FC140000F010F01010FF10FF1A
:1004A000141414FF141010101F00000000F010FFAF
:1004B000FFFFFFFFF0F0F0F0F0FFFFFF0000000093
:1004C00000FFFF0F0F0F0F0F3844443844FC4A4A17
:1004D0004A347E02020606027E027E0263554941CC
:1004E000633844443C04407E201E2006027E020203
:1004F00099A5E7A5991C2A492A1C4C7201724C3017
:100500004A4D4D303048784830BC625A463D3E49ED
:100510004949007E0101017E2A2A2A2A2A44445F91
:10052000444440514A444040444A51400000FF0185
:1005300003E080FF000008086B6B08361236243693
:10054000060F090F060000181800000010100030F8
:1005500040FF0101001F01011E00191D1712003C80
:100560003C3C3C0000000000000103070F1F3F7FE0
:100570000080C0E0F0F8FCFE00000008000201006E
:10058000000304070000000000000000DB40A4A6F8
:100590002EAF2000A1C8D300408DAED580A80000AA
:1005A000600000000000000000000000000000E00B
:1005B0000000000000000000000000000001E0005A
:1005C00000000000000000000000000001F000003A
:1005D000000000000000000000000003F000000028
:1005E0000000000000000000000007F00000000014
:1005F00000000000000000000007F80000000000FC
:1006000000000000000000000FF800000003C00020
:100610007E000001E0007F0FF800000003C000FE34
:10062000000001E000FFEFF800000003C000FE0042
:100630000001E000FFFFF800000003C000F0000030
:10064000000F007FFE7FC0000003C000F00000002C
:100650000F003FFE7FF83FF1FBCFFCFEF3BC3DEF08
:10066000E01FFE7FFF7FFBFFDFFEFEFFBC3DEFE0F4
:100670001FC6FFFF7FFBFFDFFEFEFFBC3DEFE00F6D
:10068000E3C7FE787BC3DE1EF0FFBC3DEF0007FF33
:1006900087FC787BC3DE1EF0F83C3DEF0001FFFFD6
:1006A000F0007BC3C01EF0F03C3DEF0001F37FE0A3
:1006B0003FFBC3CFFEF0F03C3DEF0003E33F807F04
:1006C000FBC3DFFEF0F03C3DEF0007E73C00787B2A
:1006D000C3DE1EF0F03C3DEF0007FFBE00787BC399
:1006E000DE1EF0F03C3DEF0007FFFE00787BC3DE2E
:1006F0001EF0F03C3DEF000FFFFE007FFBFFDFFE32
:10070000F0F03FFDEFE00FFFFF007FFBFFDFFEF0AB
:10071000F03FFDEFE00FF9FF003E79F9CF9EF0F0DA
:100720001F3DE7E01FF1FF00000000000000000097
:100730000000001F80FF007FFFFFFFFFFFFFFFFFA4
:10074000FFE01C007F007FFFFFFFFEB46D888D1867
:10075000E000001F007FFFFFFFFE95AD7DB577E055
:1007600000000F007FFFFFFFFEA5AD9D8D19E0008B
:100770000006007FFFFFFFFEB5ADEDB57EE0000097
:100780000000000180000000000000000000038065
:1007900000000000000000000007C0000000000092
:1007A0000000000007C00000000000000000000F73
:1007B000C00000000000000000001FE0000000007A
:1007C00000000000001FE00000000000000000002A
:1007D0003FE00000000000000000003FF0000000CB
:1007E0000000000000007FF0000000000000001F7B
:1007F000F87FF0000000000000003FFE7FF00000E6
:1008000000000000003FFF7FF0000000000000003B
:100810001FFFFBE0000000000000000FFFF9FFC019
:100820000000000000000FFFF9FFF80000000000CA
:100830000007FFF1FFFF00000000000003FC73FF52
:10084000FF80000000000001FE3FFFFF800000006D
:10085000000000FF1E0FFF000000000000007FFEF0
:100860001FFC000000000000003FFFFFF800000038
:10087000000000000FDFFFE0000000000000001F8C
:1008800019FFC0000000000000003F3CFF00000016
:1008900000000000007E7CF8000000000000000066
:1008A0007FFE7C0000000000000000FFFFFC000055
:1008B000000000000000FFFFFE000000000000003C
:1008C00000FFFFFE0000000000000001FFEFFE003F
:1008D00000000000000001FFCFFE0000000000004B
:1008E0000003FF07FE0000000000000003FC07FEFD
:1008F0000000000000000003F003FE000000000004
:100900000000018000FE0000000000000000000068
:100910007E000000000000000000003E000000001B
:100920000000000000000C00000000000007800034
:10093000FC000003C0000000078001FC000003C0B1
:10094000000000078001FC000003C00000000780D9
:1009500001E00000001E000000078001E000000030
:100960001E007FE3F79FF9FDE7787BDFC0FFF7FF0D
:10097000BFFDFDFF787BDFC0FFF7FFBFFDFDFF7808
:100980007BDFC0F0F787BC3DE1FF787BDE00F0F74E
:1009900087BC3DE1F0787BDE0000F787803DE1E039
:1009A000787BDE007FF7879FFDE1E0787BDE00FF4C
:1009B000F787BFFDE1E0787BDE00F0F787BC3DE123
:1009C000E0787BDE00F0F787BC3DE1E0787BDE007D
:1009D000F0F787BC3DE1E0787BDE00FFF7FFBFFD6D
:1009E000E1E07FFBDFC0FFF7FFBFFDE1E07FFBDF62
:1009F000C07CF3F39F3DE1E03E7BCFC000000000F0
:100A000000000000000000FFFFFFFFFFFFFFFFFFEF
:100A1000FFC0FFFFFFFFFD68DB111A31C0FFFFFFC2
:100A2000FFFD2B5AFB6AEFC0FFFFFFFFFD4B5B3B57
:100A30001A33C0FFFFFFFFFD6B5BDB6AFDC02200C6
:100A4000FF21005353443133303620616C6C6F63A7
:100A50006174696F6E206661696C656400000000F6
:100A600000250028002B0000000000240027002A99
:100A70000004040404040404040202020202020347
:100A80000303030303010204081020408001020451
:100A900008102001020408102000DF14721911242C
:100AA0001FBECFEFD8E0DEBFCDBF11E0A0E0B1E0C8
:100AB000EEECF5E302C005900D92AA35B107D9F727
:100AC00023E0AAE5B1E001C01D92AB30B207E1F727
:100AD00015E0CEE4D5E004C02197FE010E94A319E1
:100AE000CD34D107C9F70E9462150C94DA1A0C9420
:100AF000000090E0FC01EB57F54F24918F58954F83
:100B0000FC018491882399F090E0880F991FFC01E3
:100B1000E959F54FA591B491FC01E35AF54F859140
:100B200094918FB7F894EC91E22BEC938FBF0895DA
:100B3000089508950895AF92BF92CF92DF92EF92F9
:100B4000FF920F931F93CF93DF936C017B018B0177
:100B5000040F151FEB015E01AE18BF08C017D107C7
:100B600059F06991D601ED91FC910190F081E02D51
:100B7000C6010995892B79F7C501DF91CF911F91A6
:100B80000F91FF90EF90DF90CF90BF90AF900895BE
:100B9000FC01538D448D252F30E0842F90E0821B83
:100BA000930B541710F0CF96089501970895FC0108
:100BB000918D828D981761F0A28DAE0FBF2FB11D60
:100BC0005D968C91928D9F5F9F73928F90E00895B8
:100BD0008FEF9FEF0895FC01918D828D981731F072
:100BE000828DE80FF11D858D90E008958FEF9FEFC6
:100BF0000895FC01918D228D892F90E0805C9F4F9C
:100C0000821B91098F73992708958EE192E00E94CB
:100C1000F90521E0892B09F420E0822F089580E076
:100C200090E0892B29F00E94050681110C940000A8
:100C30000895FC01A48DA80FB92FB11DA35ABF4F71
:100C40002C91848D90E001968F739927848FA689CB
:100C5000B7892C93A089B1898C91837080648C931F
:100C6000938D848D981306C00288F389E02D8081CE
:100C70008F7D80830895EF92FF920F931F93CF9300
:100C8000DF93EC0181E0888F9B8D8C8D98131AC0C7
:100C9000E889F989808185FF15C09FB7F894EE89AE
:100CA000FF896083E889F98980818370806480830B
:100CB0009FBF81E090E0DF91CF911F910F91FF9056
:100CC000EF900895F62E0B8D10E00F5F1F4F0F73FE
:100CD0001127E02E8C8D8E110CC00FB607FCFACFB9
:100CE000E889F989808185FFF5CFCE010E94190638
:100CF000F1CFEB8DEC0FFD2FF11DE35AFF4FF0828A
:100D00009FB7F8940B8FEA89FB8980818062CFCFEF
:100D1000CF93DF93EC01888D8823B9F0AA89BB8932
:100D2000E889F9898C9185FD03C0808186FD0DC01D
:100D30000FB607FCF7CF8C9185FFF2CF808185FF3E
:100D4000EDCFCE010E941906E9CFDF91CF91089532
:100D500090E0FC01E858FA4F2491FC01EB57F54F65
:100D60003491FC01EF58F54FE491EE23C9F02223B2
:100D700039F0233001F1A8F4213019F1223029F1A2
:100D8000F0E0EE0FFF1FE35AF54FA591B4918FB736
:100D9000F894EC91611126C030953E233C938FBFAF
:100DA00008952730A9F02830C9F0243049F7809100
:100DB00080008F7D03C0809180008F7780938000BA
:100DC000DFCF84B58F7784BDDBCF84B58F7DFBCF3C
:100DD0008091B0008F778093B000D2CF8091B00027
:100DE0008F7DF9CF3E2BDACF3FB7F89480910F0279
:100DF00090911002A0911102B091120226B5A89B09
:100E000005C02F3F19F00196A11DB11D3FBFBA2F9C
:100E1000A92F982F8827BC01CD01620F711D811D5C
:100E2000911D42E0660F771F881F991F4A95D1F7E1
:100E300008958F929F92AF92BF92CF92DF92EF92DE
:100E4000FF924B015C010E94F4066B017C010E9441
:100E5000F4066C197D098E099F09683E734081056F
:100E60009105A8F321E0821A9108A108B10888EE43
:100E7000C80E83E0D81EE11CF11C81149104A1046A
:100E8000B10429F7FF90EF90DF90CF90BF90AF9023
:100E90009F908F900895EF92FF920F931F93CF939F
:100EA000DF93EC01EC80FD806E157F050CF070C0C7
:100EB00057FF04C0240F351F50E040E08E819F8112
:100EC000FA01E20FF31F8E179F071CF49C01241BED
:100ED000350B121613060CF05BC0922F842F8695EB
:100EE000869586958E9DD0018F9DB00D11246A0F39
:100EF0007B1FAF8DB8A1A60FB71F477049F188E0DF
:100F0000841B482F682F70E0FB01E059FA4FE491F1
:100F1000281708F063C0621B71092FEF30E002C090
:100F2000359527956A95E2F7E2230130110539F0EE
:100F3000B0F10230110561F58C91E82702C08C9167
:100F4000E82BEC93941720F12C813D81A20FB31F65
:100F5000E92FE41BE83078F00230110521F58E2FDF
:100F60009C9190959C932C813D81A20FB31F88503A
:100F70008830B0F7E770EE2359F0F0E0E859FA4F07
:100F8000E49101301105F9F010F10230110519F169
:100F9000DF91CF911F910F91FF90EF900895E09511
:100FA0008C91E823CECF81E00115110509F480E092
:100FB00081959E2F8C932C813D81A20FB31F985059
:100FC0009830C0F7D7CF8C91E82BEC93E1CFE09528
:100FD0008C91E823FACF8C91E827F7CF01301105E7
:100FE00009F4ADCFE0F20230110509F4A5CFAE0D42
:100FF000BF1DAECF0F931F93CF93DF9377FF04C036
:10100000260F371F70E060E0DC011496CD91DC9173
:10101000FB01E20FF31FCE17DF071CF49E01261B16
:10102000370B121613064CF5FA0157FD3796A3E05D
:10103000F595E795AA95E1F7EC9FD001ED9FB00DEE
:10104000FC9FB00D11246A0F7B1FDC015F96ED91B0
:10105000FC91E60FF71F4770552781E090E001C033
:10106000880F4A95EAF7482F0130110559F0A8F08A
:101070002E0F3F1F02301105E1F0DF91CF911F913C
:101080000F9108952E0F3F1FE217F307B1F38191DF
:10109000DF011197842B8C93F7CF80952E0F3F1F84
:1010A000E217F30751F39191DF01119798239C9375
:1010B000F7CFE217F30709F38191DF011197842736
:1010C0008C93F7CF0F931F93FA01DC0156964C9146
:1010D00056974230E9F04330A1F1413061F5149662
:1010E0004D915C91DA01AE1BBF0BFD01E21BF30BCE
:1010F00077FD0BC0DC0116964D915C916417750766
:1011000024F4AB01BF010E94FA071F910F910895CB
:1011100014964D915C91DA01A61BB70BBD0161508D
:101120007109DC0116964D915C91DA01AE1BBF0B83
:10113000FD01E21BF30B77FDE8CFAF010E944B07E7
:10114000E4CF16964D915C91DA01A61BB70BBD0159
:1011500061507109CDCF0F931F93FA01DC015696B0
:101160004C9156974230A9F0433091F1413019F536
:1011700014964D915C91DA01AE1BBF0BFD013197C6
:10118000F7FD04C0AB01BF010E944B071F910F91F7
:10119000089514964D915C91DA01A61BB70BBD0121
:1011A000DC0116964D915C91DA01AE1BBF0BFD017F
:1011B0003197621B730BF7FDE9CFDC0116964D9159
:1011C0005C91E417F50714F7AF010E94FA07DECF30
:1011D00016964D915C91DA01A61BB70BBD01621BFF
:1011E000730BCECFFC0177FD64C0808591856817B5
:1011F00079070CF05EC057FD5CC082859385481767
:1012000059070CF056C086898230B1F0833029F13D
:10121000813041F484819581841B950BAB01BC0125
:10122000615071092130310509F108F443C02230C1
:10123000310509F463C0089584819581DC01A61B02
:10124000B70BBD016150710986819781DC01A41B38
:10125000B50BAD0141505109E5CF86819781861BC1
:10126000970BBA01AC0141505109DCCFCA0157FDBF
:101270000796A3E095958795AA95E1F7A481B58196
:101280008A9F90018B9F300D9A9F300D1124620F21
:10129000731F078CF0A1E02DE60FF71F477055274D
:1012A00021E030E001C0220F4A95EAF78081822BCD
:1012B00080830895CA0157FD079633E09595879579
:1012C0003A95E1F7A481B5818A9F90018B9F300DFB
:1012D0009A9F300D1124620F731F078CF0A1E02D2F
:1012E000E60FF71F4770552781E090E001C0880F97
:1012F0004A95EAF7809590818923DACFCA0157FD94
:10130000079623E0959587952A95E1F7A481B58105
:101310008A9F90018B9F300D9A9F300D1124620F90
:10132000731F078CF0A1E02DE60FF71F47705527BC
:1013300021E030E001C0220F4A95EAF78081822740
:10134000B7CF08958EBD00000DB407FEFDCF8EB55A
:1013500008958CBD9DBD08950895FC016370668B52
:101360008481958126813781613039F0633029F09D
:1013700091878087338722870895318720879387D5
:10138000828708952F923F924F925F926F927F9241
:101390008F929F92AF92BF92CF92DF92EF92FF9285
:1013A0000F931F93CF93DF93CDB7DEB76A970FB636
:1013B000F894DEBF0FBECDBF9A8F898F7A83698381
:1013C0004A01D22E18870F833701BC2CDC015996B5
:1013D0002D913C915A972115310509F015C11896A8
:1013E0008D919C911997681779070CF0D7C11A96BF
:1013F0008D919C91481759070CF0D0C14C2C512C61
:10140000B6E0CB9E600D711D11247C876B8716168C
:1014100017060CF0C3C1EA2DF0E0FA87E98793E0E4
:10142000EE0FFF1F9A95E1F7F88BEF87CF01840F3E
:10143000951F181619060CF0B1C1A98DBA8D5896D2
:101440008C91811104C0BFEABD1508F4D394A98D15
:10145000BA8DED91FC9111970284F385E02DCD01B9
:101460000995B5E0DB9EC0011124E981FA81FC8376
:10147000EB83312C212C9C0128593F4F388F2F8B27
:101480004A2D50E05E8B4D8BEF89F88DE20DF31DF8
:1014900044919E828D82D12CC12C69817A81620D0A
:1014A000731D7A8B698B842F90E09C8B8B8BE98DDD
:1014B000FA8DA081B18140FF82C0F1E0BF126FC000
:1014C000AF126DC01C96ED91FC912F813885A4015F
:1014D0004C0D5D1D69897A89898D9A8D0995EB89F5
:1014E000FC89F595E7954E2F5FEFC51AD50A6D81FA
:1014F0007E818D899E89680F791F7E836D8398E038
:10150000C916D10481F6AFEF2A1A3A0AEB81FC81A1
:10151000E40DF51DFC83EB83F5E02F16310409F093
:10152000B3CF2F81388526153705B9F0A98DBA8D2F
:10153000ED91FC91B1E0BB1257C0AB1255C069816F
:101540007A816B5F7F4F0088F189E02D830128E06D
:1015500030E0A401898D9A8D0995A98DBA8DED9100
:10156000FC9111970688F789E02DCD016A960FB698
:10157000F894DEBF0FBECDBFDF91CF911F910F91C9
:10158000FF90EF90DF90CF90BF90AF909F908F90A3
:101590007F906F905F904F903F902F9009941E9690
:1015A000ED91FC91EF80F88409851A8592014D81B7
:1015B0005E816B817C81898D9A8D099590CF2F8179
:1015C00038852615370509F48ACF31E0B31207C0F4
:1015D000A31205C01C96ED91FC91930178CF1E9645
:1015E000ED91FC917301E0CF6B857C8564197509E1
:1015F0000684F785E02D73010F8518899201A401F7
:10160000898D9A8D0995A9CFF901349694913297D5
:1016100045915491D91AB7E0DB9E400D511D11241C
:10162000F901259134913C8B2B8BFA012590349054
:10163000FA013296749031963491398B32966490D7
:101640003196449041E04C1518F04A1508F07FC0DF
:10165000662D062C000C770B7C836B83842D042C69
:10166000000C990B9E838D83A98DBA8DED91FC9111
:1016700011970284F385E02DCD010995512CD12CD1
:10168000C12CEA2DF0E0FA87E9872B2D30E03C876A
:101690002B87A401440D511D47FC5A95588F4F8B41
:1016A00069817A81660D711D67FC7A957E876D87E9
:1016B0007989C71608F051CF2C2D30E04D815E811D
:1016C000420F531FA985BA854A9FC0014B9F900DB9
:1016D0005A9F900D1124FC01E80DF91DF88BEF873E
:1016E000852D612C4F89588D420F531F5E8B4D8B7A
:1016F000671408F050C044244394480E877041F4A6
:10170000C1010196EB89FC89E20DF31DD4901C0107
:10171000D7FE19C0A98DBA8DED91FC91662D70E0B0
:10172000B1E0BB1219C0AB1217C02D853E85620F08
:10173000731F0484F585E02D2F8138854D895E89DE
:10174000898D9A8D0995DD0C6394842DD1CF1E82ED
:101750001D821C821B8288CF4B815C81640F751FA8
:10176000AB85BC856A9FC0016B9F900D7A9F900DE1
:10177000112469817A81680F791F0684F785E02D2D
:10178000EF80F88409851A859D014F855889898DD8
:101790009A8D0995D8CF570CC3948ACF6A960FB605
:1017A000F894DEBF0FBECDBFDF91CF911F910F9197
:1017B000FF90EF90DF90CF90BF90AF909F908F9071
:1017C0007F906F905F904F903F902F9008958F92F1
:1017D0009F92AF92CF92EF92FF920F931F93CF936E
:1017E000DF93EC01262F898D9A8D009709F051C067
:1017F0006A30D1F41D861C868D8948E0849F900153
:1018000011248E859F85820F931F9F878E8781E08D
:1018100090E0DF91CF911F910F91FF90EF90CF90CB
:10182000AF909F908F9008956D3089F3CC88AD88EC
:101830008F898823C1F08C859D8536E0C39E800DFD
:10184000911D1124488559854817590764F44E8520
:101850005F851D861C8638E0A39EC0011124840F7D
:10186000951F9F878E87EA88FB88088919894E858E
:101870005F856C857D85CE010E94C2092C898C858F
:101880009D8546E0249F800D911D11249D878C87A6
:10189000BECF6A3069F41D861C86FC013896E4913F
:1018A0002D898E859F85E29F800D911D1124ADCFDE
:1018B0006D3009F4ACCFFC0134963491631708F411
:1018C000A6CF3296E491E61708F4A1CFFC01329638
:1018D00085909490462F431B342F47E0349F800C13
:1018E000911C1124F401329634913196E491332302
:1018F000A9F1EE2399F1CC88F4013596E491AD88F5
:101900004F89442301F10E2E000CFF0BE30FF11D54
:10191000CE9EA001CF9E500D11246C857D85460F73
:10192000571F68857985641775076CF44E855F8548
:101930001D861C86FC013896E491AE9E400D511D1B
:1019400011245F874E87EA88FB88088919894E85AC
:101950005F856C857D85CE010E94C209F4013496B5
:10196000E4912C898C859D85E29F800D911D112429
:101970008DCF6F927F928F929F92AF92BF92CF92B4
:10198000DF92EF92FF920F931F93CF93DF93EC01BF
:101990006B015A0139014801E881F9810284F3851C
:1019A000E02D0995E881F9810288F389E02D87010E
:1019B0009301A501B601CE010995A501480D591D58
:1019C00041505109E881F9810288F389E02D9301A2
:1019D000B601CE010995E881F9810088F189E02DF1
:1019E0009401A501B601CE010995C60CD71CB6011C
:1019F00061507109E881F9810088F189E02D940135
:101A0000A501CE010995E881F9810688F789E02DC5
:101A1000CE01DF91CF911F910F91FF90EF90DF905A
:101A2000CF90BF90AF909F908F907F906F900994D0
:101A30006F927F928F929F92AF92BF92CF92DF92DE
:101A4000EF92FF920F931F93CF93DF935C01EB0113
:101A50006A01490138018701DC01ED91FC916217AF
:101A6000730719F5641675062CF0962D872D3A012B
:101A7000C92ED82E9601261937092F5F3F4F048CA7
:101A8000F58DE02DA301BE01C5010995DF91CF9130
:101A90001F910F91FF90EF90DF90CF90BF90AF908C
:101AA0009F908F907F906F9008954615570591F401
:101AB0002617370724F0892D4B01C22FD82F9E01FE
:101AC000281939092F5F3F4F068CF78DE02DA601AD
:101AD000B401DACF0284F385E02D0995D501ED91AB
:101AE000FC910488F589E02D83019401A601BE01D3
:101AF000C5010995D501ED91FC910688F789E02D86
:101B0000C501DF91CF911F910F91FF90EF90DF9072
:101B1000CF90BF90AF909F908F907F906F900994DF
:101B2000EF92FF920F931F93DC011A960D911C9177
:101B30001B9718962D913C911997ED91FC9100A05F
:101B4000F1A1E02D7B0150E040E070E060E00995FC
:101B50001F910F91FF90EF9008954F925F926F92B7
:101B60007F928F929F92AF92BF92CF92DF92EF922D
:101B7000FF920F931F93CF93DF936C012B015A01B8
:101B800039014801DC01ED91FC910284F385E02DDF
:101B90000995E201640C751CD601ED91FC91C61506
:101BA000D7055CF40088F189E02D87019401A50137
:101BB000BE01C60109952196EFCF0688F789E02D71
:101BC000C601DF91CF911F910F91FF90EF90DF90B1
:101BD000CF90BF90AF909F908F907F906F905F90CD
:101BE0004F9009948F929F92AF92BF92CF92DF92C3
:101BF000EF92FF920F931F93CF93DF93EC015B0162
:101C00004A016901E881F9810284F385E02D099593
:101C100095012C0D3D1D21503109E881F981048881
:101C2000F589E02D78018401A401B501CE01099563
:101C3000E881F9810688F789E02DCE01DF91CF9107
:101C40001F910F91FF90EF90DF90CF90BF90AF90DA
:101C50009F908F9009948F929F92AF92BF92CF9254
:101C6000DF92EF92FF920F931F93CF93DF93EC01DC
:101C70005B014A0169017801E881F9810284F385F9
:101C8000E02D0995C80CD91C860101501109E88185
:101C9000F9810488F589E02D9501A401B501CE01F3
:101CA0000995E881F9810688F789E02DCE01DF9159
:101CB000CF911F910F91FF90EF90DF90CF90BF9049
:101CC000AF909F908F900994EF92FF920F931F9384
:101CD000DC01ED91FC9100A0F1A1E02D09951F918F
:101CE0000F91FF90EF9008950F931F93DC01ED91FA
:101CF000FC91068CF78DE02D09951F910F910895A9
:101D00000F931F93DC01ED91FC91048CF58DE02D78
:101D100009951F910F910895DC01ED91FC910084CC
:101D2000F185E02D09943F924F925F926F927F92DE
:101D30008F929F92AF92BF92CF92DF92EF92FF92DB
:101D40000F931F93CF93DF935C017B014A016901DD
:101D5000390187E0680E711C93E0759467949A9539
:101D6000E1F72B01400E511E10E000E0312CD0E0D5
:101D7000C0E0CE0187709927330C892B59F4FE01FE
:101D800083E0F595E7958A95E1F7E00FF11FE80DFF
:101D9000F91D349037FE0AC021E030E0A701B501FB
:101DA0006C0F7D1F87EC92E00E948C0E2196CC1662
:101DB000DD06F9F68FEFE81AF80A060D171DE41490
:101DC000F504A9F6DF91CF911F910F91FF90EF904D
:101DD000DF90CF90BF90AF909F908F907F906F904B
:101DE0005F904F903F9008952F923F924F925F9255
:101DF0006F927F928F929F92AF92BF92CF92DF921B
:101E0000EF92FF920F931F93CF93DF9300D000D0F8
:101E100000D0CDB7DEB73C016A013E832D83FC8242
:101E2000EB825801A41AB50AB7FE03C0B194A1947D
:101E3000B1088D809E80861A970A97FE03C0919400
:101E4000819491088A149B045CF0902F812F0D815E
:101E50001E819D838E839C2D8D2D6B01692F782F84
:101E60000C151D055CF09D818E817E836D83692F2D
:101E7000782F902F812F8601C92ED82E1601201A77
:101E8000310A2B012D813E81421A530A57FE03C0AD
:101E9000519441945108710137FE03C03FEFE31A9A
:101EA000F30AF594E7948D819E81861797075CF578
:101EB000A1E0B0E0BA83A983C016D1064CF1D301EA
:101EC000ED91FC910484F585E02D2B813C81A801E6
:101ED0006D817E818A149B041CF04D815E81B80166
:101EE000C3010995E418F508F7FE0AC02D813E816B
:101EF00089819A81280F391F3E832D83E20CF31CC0
:101F00000F5F1F4FD9CF2FEF3FEF3A832983D4CFF5
:101F100026960FB6F894DEBF0FBECDBFDF91CF91EE
:101F20001F910F91FF90EF90DF90CF90BF90AF90F7
:101F30009F908F907F906F905F904F903F902F90E9
:101F4000089508952091C001260F3327331F2132B1
:101F50003105ECF42091E401FC0190E080E02430B4
:101F600069F082E00895A091C0012191AC01405632
:101F70005E4FA40FB52FB11D2C930196861798F3D1
:101F80008091C001680F6093C00180E0089581E0F6
:101F900008951092E40181E08093E6011092E5013A
:101FA00061E082E10E94A80661E083E10E94A80648
:101FB000E9EBF0E080818E7F808380818D7F80835C
:101FC00088E48093B80085E48093BC000895CF93A3
:101FD000DF9391E090939F018823B9F0C091B800FE
:101FE000D091BA008091BC008A7B8093BC0060E0F5
:101FF00082E10E94A80660E083E10E94A8060E9498
:10200000C90FD093BA00C093B800DF91CF91089563
:10201000E091190280911802E81730F4F0E0E658D8
:10202000FE4F808190E008958FEF9FEF089590918B
:102030001902809118022FEF3FEF981748F4E92F0B
:10204000F0E0E658FE4F208130E09F5F9093190248
:10205000C90108958091180290911902891B990B6A
:102060000895CF92DF92EF92FF920F931F93CF9339
:10207000DF937C01CB018A0120911D02222389F08C
:10208000EB016B01C40ED51ECC15DD0569F069911D
:10209000D701ED91FC910190F081E02DC7010995E8
:1020A000F3CF642F0E94A20FC801DF91CF911F913F
:1020B0000F91FF90EF90DF90CF900895CF93DF9333
:1020C0001F92CDB7DEB7698320911D022223F9F05C
:1020D00020911A02203258F021E030E0FC013383D5
:1020E000228390E080E00F90DF91CF91089580915E
:1020F0001B02E82FF0E0E65AFE4F998190838F5F34
:1021000080931B0280931A0281E090E0ECCF61E0A3
:10211000CE0101960E94A20FF7CFCF92DF92EF92ED
:10212000FF920F931F93CF93DF93D0911A0281E018
:10213000D13208F09CC0C0911C020E94F4066B01D1
:102140007C018091E40181116CC082E08093E40104
:1021500081E08093E6018FEF8093E3011092080203
:10216000D0930702AAE5B1E0E7EEF1E080E0D813F2
:102170008DC01092090280910902CC0FC82BC09328
:1021800009028091E501813009F084C01092E501D7
:102190000E94F4066B017C01809109028093BB00D0
:1021A00080919B0190919C01A0919D01B0919E0115
:1021B000892B8A2B8B2BA1F00E94F40600919B01A6
:1021C00010919C0120919D0130919E016C197D0917
:1021D0008E099F09061717072807390708F442C018
:1021E0008091BC0083FDD8CF85EC8093BC000E9419
:1021F000F4066B017C018091E401823009F44CC04B
:102200008091E3018F3F09F469C08091E30180323E
:1022100009F466C08091E301803309F463C084E06F
:1022200026C080919B0190919C01A0919D01B0914D
:102230009E01892B8A2B8B2B09F483CF0E94F406F5
:1022400000919B0110919C0120919D0130919E0174
:102250006C197D098E099F0906171707280739078A
:1022600008F06FCF80919A010E94E70F85E01092ED
:102270001B0210921A0210921D02DF91CF911F9142
:102280000F91FF90EF90DF90CF9008959D919193E3
:102290008F5F6DCF85EEA9CF80919B0190919C01BE
:1022A000A0919D01B0919E01892B8A2B8B2B09F463
:1022B000A2CF0E94F40600919B0110919C012091F5
:1022C0009D0130919E016C197D098E099F090617A9
:1022D00017072807390708F08ECFC4CF80E0C7CF93
:1022E00082E0C5CF83E0C3CFEF92FF920F931F939D
:1022F000CF93DF937C01C62F8091E4029091E50299
:10230000009709F459C02091E80231E030931D0292
:1023100020931C0210921B0210921A02DC01ED9114
:10232000FC910190F081E02D60E009958701EE2499
:10233000E394F12CD1E0C1508091E4029091E50248
:10234000CF3F91F1B0E2EB16F104D8F00E948D106E
:102350008091E4029091E5022091E802D0931D0261
:1023600020931C0210921B0210921A02DC01ED91C4
:10237000FC910190F081E02D60E00995EE24E3945A
:10238000F12C8091E4029091E502F8016491DC0166
:10239000ED91FC910190F081E02D0995BFEFEB1AD2
:1023A000FB0A0F5F1F4FC7CFDF91CF911F910F9196
:1023B000FF90EF900C948D10E091F402F091F502F3
:1023C00090818091FA028095892380838701C15092
:1023D00008F438C0F80184912091E2023091E302C0
:1023E000232B29F00E94A2090F5F1F4FF0CF28E096
:1023F00030E040E8E091F002F091F1029091F802B3
:10240000582F5423D9F05081952B9083E091F202FC
:10241000F091F30290815091F902952B9083E09115
:10242000F202F091F30250819091F9029095952378
:102430009083469521503109E9F6D6CF5081909589
:102440009523E3CFDF91CF911F910F91FF90EF90F4
:1024500008951F93CF93DF93EC018D8D9E8D009790
:1024600021F1162F29A131E030931D0220931C0287
:1024700010921B0210921A02DC01ED91FC91019066
:10248000F081E02D60E009958D8D9E8DDC01ED9150
:10249000FC910190F081E02D612F09958D8D9E8D2D
:1024A000DF91CF911F910C948D10ADA5BEA59C918D
:1024B0008BA9809589238C938B8D9C8D892B31F0F2
:1024C000862FDF91CF911F910C94A20928E030E074
:1024D00080E8A9A5BAA599A9462F4823C1F04C9137
:1024E000942B9C93ABA5BCA59C914AA9942B9C933F
:1024F000ABA5BCA54C919AA9909594239C938695E5
:102500002150310931F7DF91CF911F9108954C91FE
:1025100090959423E6CF1F93CF93DF93EC01162F72
:102520008D8D9E8D892BB1F12DA93EA94FA958AD56
:1025300060E074E284EF90E00E948119205131093B
:102540004109510956954795379527952093B8002D
:1025500066EA111167EACE010E9429128D8D9E8DC7
:10256000892B41F129AD3AAD4BAD5CAD60E074E231
:1025700084EF90E00E9481192051310941095109ED
:1025800056954795379527952093B800DF91CF91C1
:102590001F9108958B8D9C8D892B21F08EAD9FAD61
:1025A0000E94A909EFA5F8A990818CA9809589239B
:1025B0008083CECFEFA5F8A980819CA9892B808349
:1025C000E5CF90E080E008950E94CE1A85ED8093DB
:1025D000BC0080919B0190919C01A0919D01B091C4
:1025E0009E010796A11DB11D23E0B695A79597956D
:1025F00087952A95D1F72091BC0024FD03C0109245
:10260000E401089540919B0150919C0160919D01CE
:1026100070919E01452B462B472B69F30097A1052E
:10262000B10541F025E32A95F1F700000197A109D2
:10263000B109E1CF80919A010C94E70F1F920F929C
:102640000FB60F9211242F933F934F935F936F9385
:102650007F938F939F93AF93BF93EF93FF938EE1FD
:1026600092E00E941906FF91EF91BF91AF919F9167
:102670008F917F916F915F914F913F912F910F902B
:102680000FBE0F901F9018951F920F920FB60F92CA
:1026900011242F938F939F93EF93FF93E0912E023A
:1026A000F0912F028081E0913402F091350282FD99
:1026B0001BC09081809137028F5F8F732091380209
:1026C000821741F0E0913702F0E0E25EFD4F958F16
:1026D00080933702FF91EF919F918F912F910F90EF
:1026E0000FBE0F901F9018958081F4CF1F920F920C
:1026F0000FB60F9211242F933F938F939F93AF9315
:10270000BF9380910B0290910C02A0910D02B091A9
:102710000E0230910A0223E0230F2D3758F501965F
:10272000A11DB11D20930A0280930B0290930C020D
:10273000A0930D02B0930E0280910F0290911002AF
:10274000A0911102B09112020196A11DB11D8093BA
:102750000F0290931002A0931102B0931202BF9146
:10276000AF919F918F913F912F910F900FBE0F903E
:102770001F90189526E8230F0296A11DB11DD2CFF8
:102780001F920F920FB60F9211242F933F934F93E6
:102790005F936F937F938F939F93AF93BF93EF93C9
:1027A000FF938091B900887F803609F44AC0F0F524
:1027B000883209F4A7C018F5803109F49BC0B8F439
:1027C000882309F4F9C0883009F494C0FF91EF918F
:1027D000BF91AF919F918F917F916F915F914F9139
:1027E0003F912F910F900FBE0F901F901895883139
:1027F00009F488C0803251F78093E30114C080341B
:1028000009F49DC040F48033B9F38833F9F680931E
:10281000E30185ECB0C0803509F485C0883509F442
:1028200096C0883499F60E94E612D0CF883909F410
:102830008CC038F5883729F050F4883611F080378D
:1028400029F683E08093E4011092E20157C08838B2
:1028500009F47BC0803919F0803809F0B7CF809136
:10286000E201803208F071C0E091E20181E08E0F58
:102870008093E2018091BB00F0E0EE53FE4F808335
:102880003DC0803B39F0E0F4803A09F479C0883AE1
:1028900009F09CCF84E08093E4011092C101109272
:1028A000C001E0911602F091170209958091C001D4
:1028B00081110FC081E08093C0011092A00109C076
:1028C000803C09F4A6CF883C09F4A3CF883B09F0EB
:1028D0007DCFE091C10181E08E0F8093C101F0E0D6
:1028E000E056FE4F80818093BB009091C1018091A2
:1028F000C00129C0809109028093BB0085EC8093C0
:10290000BC0064CF9091080280910702981758F597
:10291000E091080281E08E0F80930802F0E0E95117
:10292000FE4F8081E9CFE091080281E08E0F809315
:1029300008028091BB00F0E0E951FE4F8083909146
:102940000802809107029817C8F285E8D8CFE09175
:10295000080281E08E0F809308028091BB00F0E0B6
:10296000E951FE4F80838091E60181115CCF81E0C7
:102970008093E50184EA8093BC001092E40126CFA5
:1029800085EC8093BC001092E4018091E2018032DA
:1029900030F4E091E201F0E0EE53FE4F10826091DE
:1029A000E20170E0E0911402F091150282EC91E0F6
:1029B00009951092E2010ACF1092E30134CFEEE1C3
:1029C000F2E01382128248EE53E060E070E044834C
:1029D0005583668377838AE091E09183808385ECD9
:1029E00090E09587848784EC90E09787868780ECD9
:1029F00090E0918B808B81EC90E0938B828B82ECCA
:102A000090E0958B848B86EC90E0978B868B118E73
:102A1000128E138E148EABEBB2E013961C921E92A4
:102A2000129714964D935D936D937C9317978CE159
:102A300091E011969C938E93E7ECF2E01382128260
:102A400020E830E03583248380E490E09783868318
:102A50003187208793878287168A15861486178682
:102A6000168681E0858B848B2FEF3FEF338B228B93
:102A7000318B208B878B108E128E118E8EE291E01F
:102A800091838083148E138EB68FA58F10A2178E1C
:102A90008FEF84A385A386A387A380A780E89AE10C
:102AA000A6E0B0E085AB96ABA7ABB0AF80EA96E806
:102AB000A1E0B0E081AF92AFA3AFB4AF80E586AF45
:102AC00017AE0895789484B5826084BD84B5816022
:102AD00084BD85B5826085BD85B5816085BD8091E9
:102AE0006E00816080936E00109281008091810061
:102AF0008260809381008091810081608093810059
:102B0000809180008160809380008091B10084601A
:102B10008093B1008091B00081608093B00080917B
:102B20007A00846080937A0080917A00826080933A
:102B30007A0080917A00816080937A0080917A0097
:102B4000806880937A001092C100E0912E02F0918B
:102B50002F0282E08083E0912A02F0912B02108202
:102B6000E0912C02F0912D028FEC808310923602BE
:102B7000E0913202F091330286E08083E0913002EE
:102B8000F0913102808180618083E0913002F09188
:102B90003102808188608083E0913002F0913102BF
:102BA000808180688083E0913002F09131028081E1
:102BB0008F7D80838091E6029091E702892B09F452
:102BC00040C02091CD023091CE02C901079697FDF9
:102BD0000796C3E095958795CA95E1F72091CB02BA
:102BE0003091CC02829FA001839F500D929F500D87
:102BF000112470E060E08091E6029091E7020E946B
:102C0000D31A2091CD023091CE028091CB029091C7
:102C1000CC02213231050CF04CC0B901605271096F
:102C200077FF02C06F5F7F4F759567958357910956
:102C300097FD019600E210E023E730E04EE955E011
:102C40004BC02091CD023091CE02C901079697FD6D
:102C50000796B3E095958795BA95E1F72091CB0259
:102C60003091CC02AC01429FC001439F900D529F16
:102C7000900D11240E94A9199093E7028093E60217
:102C8000892B09F09ECFC3E4DAE0FE01649166234C
:102C900039F08EE192E00E943B062196892BA9F73C
:102CA00042E050E066E571E08EE192E00E949B0513
:102CB000FFCFB9016054710977FF02C06F5F7F4F8A
:102CC000759567958255910997FD019600E410E08E
:102CD00022E530E04EE757E0959587950E94930EE8
:102CE00082E08093E9028091E4029091E502892BD1
:102CF00009F47CC18DE38093E802109219021092CE
:102D0000180210921B0210921A020E94C90F89E940
:102D100095E090931702809316028AE995E09093CC
:102D20001502809314028091EF0287FD1DC00E945E
:102D3000790561E08091EF020E94A80661E070E0F1
:102D400080E090E00E94190760E08091EF020E940D
:102D5000A8066AE070E080E090E00E94190761E058
:102D60008091EF020E94A8068091E4029091E50212
:102D7000892B09F4F2C12091FC023091FD024091AF
:102D8000FE025091FF0260E074E284EF90E00E9446
:102D900081192051310941095109569547953795B7
:102DA00027952093B80064E08AE995E00E947411A9
:102DB0006091CD02615087EC92E00E94291264E09C
:102DC00086E995E00E9474118091E90260E181300A
:102DD00009F064E187EC92E00E94291264E082E944
:102DE00095E00E9474118FE8809304038091CB02D8
:102DF0009091CC028038910509F0C8C18091CD0234
:102E00009091CE028034910509F0D0C18091E90201
:102E1000813009F0B9C18FE980930403C2E16AED02
:102E200087EC92E00E9429126C2F87EC92E00E94BE
:102E3000291261E887EC92E00E9429126091040354
:102E400087EC92E00E94291269ED87EC92E00E94E3
:102E500029128091E90262E2813009F061EF87EC8A
:102E600092E00E94291266E08CE895E00E947411BD
:102E70008091E4029091E502892B09F49BC1209195
:102E8000000330910103409102035091030360E07D
:102E900074E284EF90E00E948119205131094109C8
:102EA000510956954795379527952093B8008091FD
:102EB000E4029091E502892B09F486C12091FC027D
:102EC0003091FD024091FE025091FF0260E074E2F9
:102ED00084EF90E00E948119205131094109510984
:102EE00056954795379527952093B80065E08EE372
:102EF0009AE00E9474116091CB02615087EC92E0DD
:102F00000E9429122091CD023091CE02C90107966C
:102F100097FD079633E0959587953A95E1F72091CF
:102F2000CB023091CC02829F8001839F100D929F33
:102F3000100D1124C091E602D091E7028091E402C5
:102F40009091E5020C0F1D1F009709F480C120919C
:102F5000E80231E030931D0220931C0210921B0204
:102F600010921A02DC01ED91FC910190F081E02DAC
:102F700060E40995EE24E394F12CDD24D394809150
:102F8000E4029091E5020C171D0709F434C1B0E288
:102F9000EB16F104D8F00E948D108091E40290911C
:102FA000E5022091E802D0921D0220931C021092AB
:102FB0001B0210921A02DC01ED91FC910190F0814C
:102FC000E02D60E40995EE24E394F12C8091E40275
:102FD0009091E5026991DC01ED91FC910190F08105
:102FE000E02D0995BFEFEB1AFB0AC9CF8091ED02E6
:102FF0000E9479058091EE020E9479058091ED0290
:10300000082E000C990BFC01EF58F54FE491F0E00D
:10301000EE0FFF1FE35AF54F259134913093F502DF
:103020002093F402FC01EB57F54FE491E093FA0290
:103030008091EE02082E000C990BFC01EF58F54F21
:10304000E491F0E0EE0FFF1FE35AF54FA591B49124
:10305000B093F702A093F602FC01EB57F54FE49111
:10306000E093FB028C91E82BEC938091E20290912B
:10307000E302892B89F1CFB7F89480911302811173
:1030800024C0EBE7FAE08491EFE8FAE09491E82FAE
:10309000F0E0EE0FFF1FE959F54FA591B491EC91C7
:1030A000E92321F461E08AE00E94A8068AE00E94F8
:1030B00079058CB580618CBD8CB580648CBD8DE04C
:1030C0000E9479058BE00E947905809113028F5F41
:1030D00080931302CFBF27CE8091EB020E94790527
:1030E0008091EC020E9479058091EB02082E000C81
:1030F000990BFC01EF58F54FE491F0E0EE0FFF1F44
:10310000E35AF54F259134913093F1022093F00268
:10311000FC01EB57F54FE491E093F8028091EC024B
:10312000082E000C990BFC01EF58F54FE491F0E0EC
:10313000EE0FFF1FE35AF54FA591B491B093F30240
:10314000A093F202FC01EB57F54FE491E093F902F2
:103150008C91E095E823EC93E6CD8091E20290918A
:10316000E302892B31F080910503909106030E94C0
:10317000A909E091F602F091F70290818091FB029B
:103180008095892380830FCE8FEC46CE80369105C3
:1031900069F48091CD029091CE02409739F48091EC
:1031A000E902813029F480E180930403C2E037CE44
:1031B0008FEAFACFE091F602F091F70280819091C8
:1031C000FB02892B808373CE8091E2029091E3020F
:1031D000892B31F080910503909106030E94A90983
:1031E000E091F602F091F70290818091FB028095C8
:1031F000892380837BCE0E948D108091E402909180
:10320000E502892B09F464C0209100033091010389
:10321000409102035091030360E074E284EF90E078
:103220000E9481192051310941095109569547954C
:10323000379527952093B800C0E0D0E02097F1F3B0
:103240000E9405068823D1F30E940000F7CFE09189
:10325000F402F091F50280819091FA02892B80832B
:10326000C017D10751F289912091E2023091E30217
:10327000232B19F00E94A209F3CF28E030E040E8A8
:10328000E091F002F091F1029091F802582F54234E
:10329000D9F05081952B9083E091F202F091F302E6
:1032A00090815091F902952B9083E091F202F09178
:1032B000F30250819091F902909595239083469561
:1032C00021503109E9F6CCCF508190959523E3CF79
:1032D000E091F602F091F70280819091FB02892B38
:1032E0008083AACF8EE291E09093C8028093C702B8
:1032F0008091E6029091E702009711F00C94451A34
:103300000895A1E21A2EAA1BBB1BFD010DC0AA1F26
:10331000BB1FEE1FFF1FA217B307E407F50720F03E
:10332000A21BB30BE40BF50B661F771F881F991FB9
:103330001A9469F760957095809590959B01AC0102
:10334000BD01CF010895EE0FFF1F0590F491E02D10
:1033500009940F931F93CF93DF938230910510F45C
:1033600082E090E0E0910903F0910A0330E020E070
:10337000B0E0A0E0309799F42115310509F44AC076
:10338000281B390B24303105D8F58A819B816115C2
:10339000710589F1FB0193838283FE0111C0408195
:1033A00051810281138148175907E0F048175907E6
:1033B00099F4109761F012960C93129713961C9340
:1033C0003296CF01DF91CF911F910F910895009315
:1033D000090310930A03F4CF2115310551F0421768
:1033E000530738F0A901DB019A01BD01DF01F801A3
:1033F000C1CFEF01F9CF90930A0380930903CDCF9A
:10340000FE01E20FF31F819391932250310939831A
:103410002883D7CF2091070330910803232B41F451
:103420002091020130910301309308032093070398
:1034300020910001309101012115310541F42DB792
:103440003EB74091040150910501241B350BE091DA
:103450000703F0910803E217F307A0F42E1B3F0BBC
:103460002817390778F0AC014E5F5F4F24173507F6
:1034700048F04E0F5F1F509308034093070381935A
:1034800091939FCFF0E0E0E09CCFCF93DF93009744
:10349000E9F0FC01329713821282A0910903B091E6
:1034A0000A03ED0130E020E01097A1F42081318182
:1034B000820F931F209107033091080328173907C3
:1034C00009F061C0F0930803E0930703DF91CF9107
:1034D0000895EA01CE17DF07E8F54A815B819E0176
:1034E00041155105B1F7E901FB83EA8349915991EF
:1034F000C40FD51FEC17FD0761F4808191810296FE
:10350000840F951FE90199838883828193819B832E
:103510008A83F0E0E0E012968D919C9113970097DA
:10352000B9F52D913C911197CD010296820F931F11
:1035300020910703309108032817390739F630978F
:1035400051F510920A0310920903B0930803A09357
:103550000703BCCFD383C28340815181840F951F61
:10356000C817D90761F44E5F5F4F88819981480F72
:10357000591F518340838A819B81938382832115C4
:10358000310509F0B0CFF0930A03E09309039ECF11
:10359000FD01DC01C0CF13821282D7CF81E090E021
:1035A000F8940C94DA1ADC0101C06D93415050403C
:1035B000E0F7089515E0CEE4D5E004C0FE010E94D6
:0E35C000A3192196CF34D107C9F7F894FFCF95
:1035CE0000000B038000000000003B069B05C805B1
:1035DE008806F905D705EB05000000005E103110D6
:1035EE00E11298052A101710081000000000E70BD2
:1035FE009B05E112A10FF20898058C0E640E800E49
:10360E00740EF40E9805AD098B126208AB08AD0D61
:0A361E00900D180DB90C0D0A000004
:00000001FF
